{
  "address": "0x5FbDB2315678afecb367f032d93F642f64180aa3",
  "abi": [
    {
      "inputs": [],
      "stateMutability": "nonpayable",
      "type": "constructor"
    },
    {
      "anonymous": false,
      "inputs": [
        {
          "indexed": true,
          "internalType": "uint256",
          "name": "requestId",
          "type": "uint256"
        }
      ],
      "name": "RequestedID",
      "type": "event"
    },
    {
      "inputs": [
        {
          "internalType": "uint256",
          "name": "",
          "type": "uint256"
        }
      ],
      "name": "AllAccount",
      "outputs": [
        {
          "internalType": "address",
          "name": "",
          "type": "address"
        }
      ],
      "stateMutability": "view",
      "type": "function"
    },
    {
      "inputs": [
        {
          "internalType": "uint256",
          "name": "",
          "type": "uint256"
        }
      ],
      "name": "Campaign",
      "outputs": [
        {
          "internalType": "address",
          "name": "user",
          "type": "address"
        },
        {
          "internalType": "address",
          "name": "vol",
          "type": "address"
        },
        {
          "internalType": "uint256",
          "name": "start_time",
          "type": "uint256"
        },
        {
          "internalType": "uint256",
          "name": "end_time",
          "type": "uint256"
        },
        {
          "internalType": "string",
          "name": "image",
          "type": "string"
        },
        {
          "internalType": "uint256",
          "name": "fee",
          "type": "uint256"
        },
        {
          "internalType": "uint256",
          "name": "index",
          "type": "uint256"
        },
        {
          "internalType": "bool",
          "name": "completed",
          "type": "bool"
        },
        {
          "internalType": "string",
          "name": "name",
          "type": "string"
        },
        {
          "internalType": "string",
          "name": "desc",
          "type": "string"
        }
      ],
      "stateMutability": "view",
      "type": "function"
    },
    {
      "inputs": [
        {
          "internalType": "address",
          "name": "",
          "type": "address"
        },
        {
          "internalType": "uint256",
          "name": "",
          "type": "uint256"
        }
      ],
      "name": "Meeting",
      "outputs": [
        {
          "internalType": "address payable",
          "name": "host",
          "type": "address"
        },
        {
          "internalType": "address payable",
          "name": "user",
          "type": "address"
        },
        {
          "internalType": "uint256",
          "name": "start",
          "type": "uint256"
        },
        {
          "internalType": "uint256",
          "name": "end",
          "type": "uint256"
        },
        {
          "internalType": "string",
          "name": "desc",
          "type": "string"
        },
        {
          "internalType": "uint256",
          "name": "time",
          "type": "uint256"
        },
        {
          "internalType": "uint256",
          "name": "fee",
          "type": "uint256"
        },
        {
          "internalType": "uint256",
          "name": "index",
          "type": "uint256"
        },
        {
          "internalType": "bool",
          "name": "completed",
          "type": "bool"
        },
        {
          "internalType": "bool",
          "name": "booked",
          "type": "bool"
        }
      ],
      "stateMutability": "view",
      "type": "function"
    },
    {
      "inputs": [
        {
          "internalType": "address",
          "name": "",
          "type": "address"
        }
      ],
      "name": "UserProfile",
      "outputs": [
        {
          "internalType": "address",
          "name": "addr",
          "type": "address"
        },
        {
          "internalType": "string",
          "name": "name",
          "type": "string"
        },
        {
          "internalType": "string",
          "name": "role",
          "type": "string"
        },
        {
          "internalType": "uint256",
          "name": "rating",
          "type": "uint256"
        },
        {
          "internalType": "string",
          "name": "bio",
          "type": "string"
        },
        {
          "internalType": "string",
          "name": "profilePic",
          "type": "string"
        },
        {
          "internalType": "string",
          "name": "hostTitle",
          "type": "string"
        }
      ],
      "stateMutability": "view",
      "type": "function"
    },
    {
      "inputs": [],
      "name": "campaignIndex",
      "outputs": [
        {
          "internalType": "uint256",
          "name": "",
          "type": "uint256"
        }
      ],
      "stateMutability": "view",
      "type": "function"
    },
    {
      "inputs": [],
      "name": "campaignNum",
      "outputs": [
        {
          "internalType": "uint256",
          "name": "",
          "type": "uint256"
        }
      ],
      "stateMutability": "view",
      "type": "function"
    },
    {
      "inputs": [],
      "name": "counter",
      "outputs": [
        {
          "internalType": "uint256",
          "name": "",
          "type": "uint256"
        }
      ],
      "stateMutability": "view",
      "type": "function"
    },
    {
      "inputs": [
        {
          "internalType": "string",
          "name": "_name",
          "type": "string"
        },
        {
          "internalType": "string",
          "name": "_desc",
          "type": "string"
        },
        {
          "internalType": "string",
          "name": "_image",
          "type": "string"
        }
      ],
      "name": "createCampaign",
      "outputs": [],
      "stateMutability": "nonpayable",
      "type": "function"
    },
    {
      "inputs": [
        {
          "internalType": "uint256",
          "name": "_rating",
          "type": "uint256"
        },
        {
          "internalType": "string",
          "name": "_name",
          "type": "string"
        },
        {
          "internalType": "string",
          "name": "_pic",
          "type": "string"
        },
        {
          "internalType": "string",
          "name": "_bio",
          "type": "string"
        },
        {
          "internalType": "string",
          "name": "_title",
          "type": "string"
        }
      ],
      "name": "createHost",
      "outputs": [],
      "stateMutability": "nonpayable",
      "type": "function"
    },
    {
      "inputs": [
        {
          "internalType": "uint256",
          "name": "_start",
          "type": "uint256"
        },
        {
          "internalType": "uint256",
          "name": "_end",
          "type": "uint256"
        },
        {
          "internalType": "uint256",
          "name": "_fee",
          "type": "uint256"
        },
        {
          "internalType": "string",
          "name": "_desc",
          "type": "string"
        }
      ],
      "name": "createSchedule",
      "outputs": [],
      "stateMutability": "nonpayable",
      "type": "function"
    },
    {
      "inputs": [
        {
          "internalType": "uint256",
          "name": "_rating",
          "type": "uint256"
        },
        {
          "internalType": "string",
          "name": "_name",
          "type": "string"
        },
        {
          "internalType": "string",
          "name": "_pic",
          "type": "string"
        },
        {
          "internalType": "string",
          "name": "_bio",
          "type": "string"
        }
      ],
      "name": "createUser",
      "outputs": [],
      "stateMutability": "nonpayable",
      "type": "function"
    },
    {
      "inputs": [
        {
          "internalType": "uint256",
          "name": "_id",
          "type": "uint256"
        }
      ],
      "name": "endCampaign",
      "outputs": [],
      "stateMutability": "nonpayable",
      "type": "function"
    },
    {
      "inputs": [],
      "name": "endMeeting",
      "outputs": [],
      "stateMutability": "nonpayable",
      "type": "function"
    },
    {
      "inputs": [],
      "name": "getAllAccount",
      "outputs": [
        {
          "internalType": "address[]",
          "name": "",
          "type": "address[]"
        }
      ],
      "stateMutability": "view",
      "type": "function"
    },
    {
      "inputs": [],
      "name": "getCampaign",
      "outputs": [
        {
          "components": [
            {
              "internalType": "address[]",
              "name": "volunteer",
              "type": "address[]"
            },
            {
              "internalType": "address",
              "name": "user",
              "type": "address"
            },
            {
              "internalType": "address",
              "name": "vol",
              "type": "address"
            },
            {
              "internalType": "uint256",
              "name": "start_time",
              "type": "uint256"
            },
            {
              "internalType": "uint256",
              "name": "end_time",
              "type": "uint256"
            },
            {
              "internalType": "string",
              "name": "image",
              "type": "string"
            },
            {
              "internalType": "uint256",
              "name": "fee",
              "type": "uint256"
            },
            {
              "internalType": "uint256",
              "name": "index",
              "type": "uint256"
            },
            {
              "internalType": "bool",
              "name": "completed",
              "type": "bool"
            },
            {
              "internalType": "string",
              "name": "name",
              "type": "string"
            },
            {
              "internalType": "string",
              "name": "desc",
              "type": "string"
            }
          ],
          "internalType": "struct XTELPT.campaign[]",
          "name": "",
          "type": "tuple[]"
        }
      ],
      "stateMutability": "view",
      "type": "function"
    },
    {
      "inputs": [
        {
          "internalType": "uint256",
          "name": "_id",
          "type": "uint256"
        }
      ],
      "name": "getHelp",
      "outputs": [],
      "stateMutability": "nonpayable",
      "type": "function"
    },
    {
      "inputs": [
        {
          "internalType": "address",
          "name": "_prof",
          "type": "address"
        }
      ],
      "name": "getMeeting",
      "outputs": [
        {
          "components": [
            {
              "internalType": "address payable",
              "name": "host",
              "type": "address"
            },
            {
              "internalType": "address payable",
              "name": "user",
              "type": "address"
            },
            {
              "internalType": "uint256",
              "name": "start",
              "type": "uint256"
            },
            {
              "internalType": "uint256",
              "name": "end",
              "type": "uint256"
            },
            {
              "internalType": "string",
              "name": "desc",
              "type": "string"
            },
            {
              "internalType": "uint256",
              "name": "time",
              "type": "uint256"
            },
            {
              "internalType": "uint256",
              "name": "fee",
              "type": "uint256"
            },
            {
              "internalType": "uint256",
              "name": "index",
              "type": "uint256"
            },
            {
              "internalType": "bool",
              "name": "completed",
              "type": "bool"
            },
            {
              "internalType": "bool",
              "name": "booked",
              "type": "bool"
            }
          ],
          "internalType": "struct XTELPT.meeting[]",
          "name": "",
          "type": "tuple[]"
        }
      ],
      "stateMutability": "view",
      "type": "function"
    },
    {
      "inputs": [
        {
          "internalType": "address",
          "name": "userAdd",
          "type": "address"
        }
      ],
      "name": "getProfile",
      "outputs": [
        {
          "components": [
            {
              "internalType": "address",
              "name": "addr",
              "type": "address"
            },
            {
              "internalType": "string",
              "name": "name",
              "type": "string"
            },
            {
              "internalType": "string",
              "name": "role",
              "type": "string"
            },
            {
              "internalType": "uint256",
              "name": "rating",
              "type": "uint256"
            },
            {
              "internalType": "string",
              "name": "bio",
              "type": "string"
            },
            {
              "internalType": "string",
              "name": "profilePic",
              "type": "string"
            },
            {
              "internalType": "string",
              "name": "hostTitle",
              "type": "string"
            }
          ],
          "internalType": "struct XTELPT.profile",
          "name": "",
          "type": "tuple"
        }
      ],
      "stateMutability": "view",
      "type": "function"
    },
    {
      "inputs": [],
      "name": "interval",
      "outputs": [
        {
          "internalType": "uint256",
          "name": "",
          "type": "uint256"
        }
      ],
      "stateMutability": "view",
      "type": "function"
    },
    {
      "inputs": [
        {
          "internalType": "address",
          "name": "addr",
          "type": "address"
        }
      ],
      "name": "isUser",
      "outputs": [
        {
          "internalType": "bool",
          "name": "",
          "type": "bool"
        }
      ],
      "stateMutability": "view",
      "type": "function"
    },
    {
      "inputs": [
        {
          "internalType": "uint256",
          "name": "_id",
          "type": "uint256"
        }
      ],
      "name": "joinCampaign",
      "outputs": [],
      "stateMutability": "nonpayable",
      "type": "function"
    },
    {
      "inputs": [
        {
          "internalType": "address",
          "name": "_host",
          "type": "address"
        },
        {
          "internalType": "uint256",
          "name": "_id",
          "type": "uint256"
        }
      ],
      "name": "joinMeeting",
      "outputs": [],
      "stateMutability": "payable",
      "type": "function"
    },
    {
      "inputs": [],
      "name": "lastTimeStamp",
      "outputs": [
        {
          "internalType": "uint256",
          "name": "",
          "type": "uint256"
        }
      ],
      "stateMutability": "view",
      "type": "function"
    },
    {
      "inputs": [],
      "name": "meetingIndex",
      "outputs": [
        {
          "internalType": "uint256",
          "name": "",
          "type": "uint256"
        }
      ],
      "stateMutability": "view",
      "type": "function"
    },
    {
      "inputs": [],
      "name": "meetingNum",
      "outputs": [
        {
          "internalType": "uint256",
          "name": "",
          "type": "uint256"
        }
      ],
      "stateMutability": "view",
      "type": "function"
    },
    {
      "inputs": [],
      "name": "owner",
      "outputs": [
        {
          "internalType": "address",
          "name": "",
          "type": "address"
        }
      ],
      "stateMutability": "view",
      "type": "function"
    },
    {
      "inputs": [
        {
          "internalType": "uint256",
          "name": "",
          "type": "uint256"
        }
      ],
      "name": "recentCampaignCreator",
      "outputs": [
        {
          "internalType": "address",
          "name": "",
          "type": "address"
        }
      ],
      "stateMutability": "view",
      "type": "function"
    }
  ],
  "transactionHash": "0x4c39e89f15532fbf92f1c5ccbb1ca1dc909e4e1959a8a54d70e25ba371d34d24",
  "args": [],
  "numDeployments": 1,
  "solcInputHash": "f5cd4afcadba5bcb2f31537cc91f387a",
  "bytecode": "0x60a06040526040518060400160405280600481526020017f5573657200000000000000000000000000000000000000000000000000000000815250600390805190602001906200005192919062000229565b506040518060400160405280600481526020017f486f737400000000000000000000000000000000000000000000000000000000815250600490805190602001906200009f92919062000229565b506040518060400160405280600581526020017f566f6c756e00000000000000000000000000000000000000000000000000000081525060059080519060200190620000ed92919062000229565b50348015620000fb57600080fd5b50336000806101000a81548173ffffffffffffffffffffffffffffffffffffffff021916908373ffffffffffffffffffffffffffffffffffffffff160217905550426002819055506000600b60003373ffffffffffffffffffffffffffffffffffffffff1673ffffffffffffffffffffffffffffffffffffffff16815260200190815260200160002060006101000a81548160ff02191690836001811115620001a957620001a86200030f565b5b02179055506000600c60003373ffffffffffffffffffffffffffffffffffffffff1673ffffffffffffffffffffffffffffffffffffffff16815260200190815260200160002060006101000a81548160ff021916908360018111156200021457620002136200030f565b5b021790555061012c608081815250506200036d565b8280546200023790620002d9565b90600052602060002090601f0160209004810192826200025b5760008555620002a7565b82601f106200027657805160ff1916838001178555620002a7565b82800160010185558215620002a7579182015b82811115620002a657825182559160200191906001019062000289565b5b509050620002b69190620002ba565b5090565b5b80821115620002d5576000816000905550600101620002bb565b5090565b60006002820490506001821680620002f257607f821691505b602082108114156200030957620003086200033e565b5b50919050565b7f4e487b7100000000000000000000000000000000000000000000000000000000600052602160045260246000fd5b7f4e487b7100000000000000000000000000000000000000000000000000000000600052602260045260246000fd5b6080516145a2620003896000396000611cfe01526145a26000f3fe60806040526004361061019c5760003560e01c80637eac3d92116100ec578063cb40bf601161008a578063dd0408ae11610064578063dd0408ae146105e0578063e34116de14610609578063e9323db614610632578063fc49d3e6146106785761019c565b8063cb40bf6014610558578063d4a82a5814610574578063d7358c5e1461059d5761019c565b8063960ccccc116100c6578063960ccccc1461049c5780639dc5368d146104c5578063b16cfdd4146104f0578063c5e0cfd01461052d5761019c565b80637eac3d92146104095780638da5cb5b14610446578063947a36fb146104715761019c565b8063550c18d711610159578063680908c911610133578063680908c91461037357806370af1dd21461039e578063766c21a2146103b55780637d74311c146103e05761019c565b8063550c18d7146102f457806356361f0d1461031d57806361bc221a146103485761019c565b80630f53a470146101a1578063236b8e3a146101de57806324b9ed2d146102095780632dd47fc9146102465780633f3b3b271461028c5780634209fff1146102b7575b600080fd5b3480156101ad57600080fd5b506101c860048036038101906101c39190613394565b6106a1565b6040516101d59190614072565b60405180910390f35b3480156101ea57600080fd5b506101f3610a34565b6040516102009190613fd3565b60405180910390f35b34801561021557600080fd5b50610230600480360381019061022b9190613394565b610dc7565b60405161023d9190613ff5565b60405180910390f35b34801561025257600080fd5b5061026d600480360381019061026891906133c1565b61100c565b6040516102839a99989796959493929190613dcb565b60405180910390f35b34801561029857600080fd5b506102a161115f565b6040516102ae9190614094565b60405180910390f35b3480156102c357600080fd5b506102de60048036038101906102d99190613394565b611165565b6040516102eb9190614017565b60405180910390f35b34801561030057600080fd5b5061031b60048036038101906103169190613590565b61123d565b005b34801561032957600080fd5b50610332611627565b60405161033f9190614094565b60405180910390f35b34801561035457600080fd5b5061035d61162d565b60405161036a9190614094565b60405180910390f35b34801561037f57600080fd5b50610388611633565b6040516103959190614094565b60405180910390f35b3480156103aa57600080fd5b506103b361163d565b005b3480156103c157600080fd5b506103ca611969565b6040516103d79190614094565b60405180910390f35b3480156103ec57600080fd5b50610407600480360381019061040291906134d5565b61196f565b005b34801561041557600080fd5b50610430600480360381019061042b91906134a8565b611c99565b60405161043d9190613db0565b60405180910390f35b34801561045257600080fd5b5061045b611cd8565b6040516104689190613db0565b60405180910390f35b34801561047d57600080fd5b50610486611cfc565b6040516104939190614094565b60405180910390f35b3480156104a857600080fd5b506104c360048036038101906104be91906134a8565b611d20565b005b3480156104d157600080fd5b506104da611f4d565b6040516104e79190613fb1565b60405180910390f35b3480156104fc57600080fd5b50610517600480360381019061051291906134a8565b611fdb565b6040516105249190613db0565b60405180910390f35b34801561053957600080fd5b5061054261201a565b60405161054f9190614094565b60405180910390f35b610572600480360381019061056d91906133c1565b612024565b005b34801561058057600080fd5b5061059b600480360381019061059691906134a8565b612211565b005b3480156105a957600080fd5b506105c460048036038101906105bf9190613394565b612367565b6040516105d79796959493929190613f1f565b60405180910390f35b3480156105ec57600080fd5b50610607600480360381019061060291906134a8565b612671565b005b34801561061557600080fd5b50610630600480360381019061062b9190613401565b6127a9565b005b34801561063e57600080fd5b50610659600480360381019061065491906134a8565b612a48565b60405161066f9a99989796959493929190613e6e565b60405180910390f35b34801561068457600080fd5b5061069f600480360381019061069a919061367b565b612c91565b005b6106a9612fe2565b600a60008373ffffffffffffffffffffffffffffffffffffffff1673ffffffffffffffffffffffffffffffffffffffff1681526020019081526020016000206040518060e00160405290816000820160009054906101000a900473ffffffffffffffffffffffffffffffffffffffff1673ffffffffffffffffffffffffffffffffffffffff1673ffffffffffffffffffffffffffffffffffffffff168152602001600182018054610759906142de565b80601f0160208091040260200160405190810160405280929190818152602001828054610785906142de565b80156107d25780601f106107a7576101008083540402835291602001916107d2565b820191906000526020600020905b8154815290600101906020018083116107b557829003601f168201915b505050505081526020016002820180546107eb906142de565b80601f0160208091040260200160405190810160405280929190818152602001828054610817906142de565b80156108645780601f1061083957610100808354040283529160200191610864565b820191906000526020600020905b81548152906001019060200180831161084757829003601f168201915b5050505050815260200160038201548152602001600482018054610887906142de565b80601f01602080910402602001604051908101604052809291908181526020018280546108b3906142de565b80156109005780601f106108d557610100808354040283529160200191610900565b820191906000526020600020905b8154815290600101906020018083116108e357829003601f168201915b50505050508152602001600582018054610919906142de565b80601f0160208091040260200160405190810160405280929190818152602001828054610945906142de565b80156109925780601f1061096757610100808354040283529160200191610992565b820191906000526020600020905b81548152906001019060200180831161097557829003601f168201915b505050505081526020016006820180546109ab906142de565b80601f01602080910402602001604051908101604052809291908181526020018280546109d7906142de565b8015610a245780601f106109f957610100808354040283529160200191610a24565b820191906000526020600020905b815481529060010190602001808311610a0757829003601f168201915b5050505050815250509050919050565b60606007805480602002602001604051908101604052809291908181526020016000905b82821015610dbe57838290600052602060002090600b02016040518061016001604052908160008201805480602002602001604051908101604052809291908181526020018280548015610b0157602002820191906000526020600020905b8160009054906101000a900473ffffffffffffffffffffffffffffffffffffffff1673ffffffffffffffffffffffffffffffffffffffff1681526020019060010190808311610ab7575b505050505081526020016001820160009054906101000a900473ffffffffffffffffffffffffffffffffffffffff1673ffffffffffffffffffffffffffffffffffffffff1673ffffffffffffffffffffffffffffffffffffffff1681526020016002820160009054906101000a900473ffffffffffffffffffffffffffffffffffffffff1673ffffffffffffffffffffffffffffffffffffffff1673ffffffffffffffffffffffffffffffffffffffff1681526020016003820154815260200160048201548152602001600582018054610bda906142de565b80601f0160208091040260200160405190810160405280929190818152602001828054610c06906142de565b8015610c535780601f10610c2857610100808354040283529160200191610c53565b820191906000526020600020905b815481529060010190602001808311610c3657829003601f168201915b5050505050815260200160068201548152602001600782015481526020016008820160009054906101000a900460ff16151515158152602001600982018054610c9b906142de565b80601f0160208091040260200160405190810160405280929190818152602001828054610cc7906142de565b8015610d145780601f10610ce957610100808354040283529160200191610d14565b820191906000526020600020905b815481529060010190602001808311610cf757829003601f168201915b50505050508152602001600a82018054610d2d906142de565b80601f0160208091040260200160405190810160405280929190818152602001828054610d59906142de565b8015610da65780601f10610d7b57610100808354040283529160200191610da6565b820191906000526020600020905b815481529060010190602001808311610d8957829003601f168201915b50505050508152505081526020019060010190610a58565b50505050905090565b6060600660008373ffffffffffffffffffffffffffffffffffffffff1673ffffffffffffffffffffffffffffffffffffffff168152602001908152602001600020805480602002602001604051908101604052809291908181526020016000905b828210156110015783829060005260206000209060090201604051806101400160405290816000820160009054906101000a900473ffffffffffffffffffffffffffffffffffffffff1673ffffffffffffffffffffffffffffffffffffffff1673ffffffffffffffffffffffffffffffffffffffff1681526020016001820160009054906101000a900473ffffffffffffffffffffffffffffffffffffffff1673ffffffffffffffffffffffffffffffffffffffff1673ffffffffffffffffffffffffffffffffffffffff1681526020016002820154815260200160038201548152602001600482018054610f1c906142de565b80601f0160208091040260200160405190810160405280929190818152602001828054610f48906142de565b8015610f955780601f10610f6a57610100808354040283529160200191610f95565b820191906000526020600020905b815481529060010190602001808311610f7857829003601f168201915b505050505081526020016005820154815260200160068201548152602001600782015481526020016008820160009054906101000a900460ff161515151581526020016008820160019054906101000a900460ff16151515158152505081526020019060010190610e28565b505050509050919050565b6006602052816000526040600020818154811061102857600080fd5b9060005260206000209060090201600091509150508060000160009054906101000a900473ffffffffffffffffffffffffffffffffffffffff16908060010160009054906101000a900473ffffffffffffffffffffffffffffffffffffffff16908060020154908060030154908060040180546110a4906142de565b80601f01602080910402602001604051908101604052809291908181526020018280546110d0906142de565b801561111d5780601f106110f25761010080835404028352916020019161111d565b820191906000526020600020905b81548152906001019060200180831161110057829003601f168201915b5050505050908060050154908060060154908060070154908060080160009054906101000a900460ff16908060080160019054906101000a900460ff1690508a565b60025481565b600060405160200161117690613d86565b60405160208183030381529060405280519060200120600a60008473ffffffffffffffffffffffffffffffffffffffff1673ffffffffffffffffffffffffffffffffffffffff1681526020019081526020016000206002016040516020016111de9190613d6f565b6040516020818303038152906040528051906020012014611234576040517f08c379a000000000000000000000000000000000000000000000000000000000815260040161122b90614032565b60405180910390fd5b60019050919050565b600073ffffffffffffffffffffffffffffffffffffffff16600a60003373ffffffffffffffffffffffffffffffffffffffff1673ffffffffffffffffffffffffffffffffffffffff16815260200190815260200160002060000160009054906101000a900473ffffffffffffffffffffffffffffffffffffffff1673ffffffffffffffffffffffffffffffffffffffff16141561133857600d339080600181540180825580915050600190039060005260206000200160009091909190916101000a81548173ffffffffffffffffffffffffffffffffffffffff021916908373ffffffffffffffffffffffffffffffffffffffff1602179055505b6000600b60003373ffffffffffffffffffffffffffffffffffffffff1673ffffffffffffffffffffffffffffffffffffffff16815260200190815260200160002060006101000a81548160ff0219169083600181111561139b5761139a6143b9565b5b021790555033600a60003373ffffffffffffffffffffffffffffffffffffffff1673ffffffffffffffffffffffffffffffffffffffff16815260200190815260200160002060000160006101000a81548173ffffffffffffffffffffffffffffffffffffffff021916908373ffffffffffffffffffffffffffffffffffffffff16021790555083600a60003373ffffffffffffffffffffffffffffffffffffffff1673ffffffffffffffffffffffffffffffffffffffff1681526020019081526020016000206001019080519060200190611477929190613035565b5080600a60003373ffffffffffffffffffffffffffffffffffffffff1673ffffffffffffffffffffffffffffffffffffffff16815260200190815260200160002060060190805190602001906114ce929190613035565b5084600a60003373ffffffffffffffffffffffffffffffffffffffff1673ffffffffffffffffffffffffffffffffffffffff168152602001908152602001600020600301819055506004600a60003373ffffffffffffffffffffffffffffffffffffffff1673ffffffffffffffffffffffffffffffffffffffff168152602001908152602001600020600201908054611566906142de565b6115719291906130bb565b5082600a60003373ffffffffffffffffffffffffffffffffffffffff1673ffffffffffffffffffffffffffffffffffffffff16815260200190815260200160002060050190805190602001906115c8929190613035565b5081600a60003373ffffffffffffffffffffffffffffffffffffffff1673ffffffffffffffffffffffffffffffffffffffff168152602001908152602001600020600401908051906020019061161f929190613035565b505050505050565b60085481565b60015481565b6000600954905090565b60005b600d805490508110156119665760005b60066000600d848154811061166857611667614417565b5b9060005260206000200160009054906101000a900473ffffffffffffffffffffffffffffffffffffffff1673ffffffffffffffffffffffffffffffffffffffff1673ffffffffffffffffffffffffffffffffffffffff1681526020019081526020016000208054905081101561195257600160066000600d85815481106116f2576116f1614417565b5b9060005260206000200160009054906101000a900473ffffffffffffffffffffffffffffffffffffffff1673ffffffffffffffffffffffffffffffffffffffff1673ffffffffffffffffffffffffffffffffffffffff168152602001908152602001600020828154811061176957611768614417565b5b906000526020600020906009020160080160006101000a81548160ff0219169083151502179055504260028190555060066000600d84815481106117b0576117af614417565b5b9060005260206000200160009054906101000a900473ffffffffffffffffffffffffffffffffffffffff1673ffffffffffffffffffffffffffffffffffffffff1673ffffffffffffffffffffffffffffffffffffffff168152602001908152602001600020818154811061182757611826614417565b5b906000526020600020906009020160000160009054906101000a900473ffffffffffffffffffffffffffffffffffffffff1673ffffffffffffffffffffffffffffffffffffffff166108fc60066000600d868154811061188a57611889614417565b5b9060005260206000200160009054906101000a900473ffffffffffffffffffffffffffffffffffffffff1673ffffffffffffffffffffffffffffffffffffffff1673ffffffffffffffffffffffffffffffffffffffff168152602001908152602001600020838154811061190157611900614417565b5b9060005260206000209060090201600601549081150290604051600060405180830381858888f1935050505015801561193e573d6000803e3d6000fd5b50808061194a90614341565b915050611650565b50808061195e90614341565b915050611640565b50565b60095481565b600073ffffffffffffffffffffffffffffffffffffffff16600a60003373ffffffffffffffffffffffffffffffffffffffff1673ffffffffffffffffffffffffffffffffffffffff16815260200190815260200160002060000160009054906101000a900473ffffffffffffffffffffffffffffffffffffffff1673ffffffffffffffffffffffffffffffffffffffff161415611a6a57600d339080600181540180825580915050600190039060005260206000200160009091909190916101000a81548173ffffffffffffffffffffffffffffffffffffffff021916908373ffffffffffffffffffffffffffffffffffffffff1602179055505b33600a60003373ffffffffffffffffffffffffffffffffffffffff1673ffffffffffffffffffffffffffffffffffffffff16815260200190815260200160002060000160006101000a81548173ffffffffffffffffffffffffffffffffffffffff021916908373ffffffffffffffffffffffffffffffffffffffff16021790555082600a60003373ffffffffffffffffffffffffffffffffffffffff1673ffffffffffffffffffffffffffffffffffffffff1681526020019081526020016000206001019080519060200190611b41929190613035565b5083600a60003373ffffffffffffffffffffffffffffffffffffffff1673ffffffffffffffffffffffffffffffffffffffff168152602001908152602001600020600301819055506003600a60003373ffffffffffffffffffffffffffffffffffffffff1673ffffffffffffffffffffffffffffffffffffffff168152602001908152602001600020600201908054611bd9906142de565b611be49291906130bb565b5081600a60003373ffffffffffffffffffffffffffffffffffffffff1673ffffffffffffffffffffffffffffffffffffffff1681526020019081526020016000206005019080519060200190611c3b929190613035565b5080600a60003373ffffffffffffffffffffffffffffffffffffffff1673ffffffffffffffffffffffffffffffffffffffff1681526020019081526020016000206004019080519060200190611c92929190613035565b5050505050565b600d8181548110611ca957600080fd5b906000526020600020016000915054906101000a900473ffffffffffffffffffffffffffffffffffffffff1681565b60008054906101000a900473ffffffffffffffffffffffffffffffffffffffff1681565b7f000000000000000000000000000000000000000000000000000000000000000081565b604051602001611d2f90613d86565b60405160208183030381529060405280519060200120600a60003373ffffffffffffffffffffffffffffffffffffffff1673ffffffffffffffffffffffffffffffffffffffff168152602001908152602001600020600201604051602001611d979190613d6f565b6040516020818303038152906040528051906020012014611ded576040517f08c379a0000000000000000000000000000000000000000000000000000000008152600401611de490614032565b60405180910390fd5b3360078281548110611e0257611e01614417565b5b90600052602060002090600b020160010160006101000a81548173ffffffffffffffffffffffffffffffffffffffff021916908373ffffffffffffffffffffffffffffffffffffffff16021790555060078181548110611e6557611e64614417565b5b90600052602060002090600b0201600001600160078381548110611e8c57611e8b614417565b5b90600052602060002090600b020160000180549050611eab919061420e565b81548110611ebc57611ebb614417565b5b9060005260206000200160009054906101000a900473ffffffffffffffffffffffffffffffffffffffff1660078281548110611efb57611efa614417565b5b90600052602060002090600b020160020160006101000a81548173ffffffffffffffffffffffffffffffffffffffff021916908373ffffffffffffffffffffffffffffffffffffffff16021790555050565b6060600d805480602002602001604051908101604052809291908181526020018280548015611fd157602002820191906000526020600020905b8160009054906101000a900473ffffffffffffffffffffffffffffffffffffffff1673ffffffffffffffffffffffffffffffffffffffff1681526020019060010190808311611f87575b5050505050905090565b600e8181548110611feb57600080fd5b906000526020600020016000915054906101000a900473ffffffffffffffffffffffffffffffffffffffff1681565b6000600854905090565b60405160200161203390613d86565b60405160208183030381529060405280519060200120600a60003373ffffffffffffffffffffffffffffffffffffffff1673ffffffffffffffffffffffffffffffffffffffff16815260200190815260200160002060020160405160200161209b9190613d6f565b60405160208183030381529060405280519060200120146120f1576040517f08c379a00000000000000000000000000000000000000000000000000000000081526004016120e890614032565b60405180910390fd5b33600660008473ffffffffffffffffffffffffffffffffffffffff1673ffffffffffffffffffffffffffffffffffffffff168152602001908152602001600020828154811061214357612142614417565b5b906000526020600020906009020160010160006101000a81548173ffffffffffffffffffffffffffffffffffffffff021916908373ffffffffffffffffffffffffffffffffffffffff1602179055506001600660008473ffffffffffffffffffffffffffffffffffffffff1673ffffffffffffffffffffffffffffffffffffffff16815260200190815260200160002082815481106121e5576121e4614417565b5b906000526020600020906009020160080160016101000a81548160ff0219169083151502179055505050565b60405160200161222090613d9b565b60405160208183030381529060405280519060200120600a60003373ffffffffffffffffffffffffffffffffffffffff1673ffffffffffffffffffffffffffffffffffffffff1681526020019081526020016000206002016040516020016122889190613d6f565b60405160208183030381529060405280519060200120146122de576040517f08c379a00000000000000000000000000000000000000000000000000000000081526004016122d590614052565b60405180910390fd5b600781815481106122f2576122f1614417565b5b90600052602060002090600b0201600001339080600181540180825580915050600190039060005260206000200160009091909190916101000a81548173ffffffffffffffffffffffffffffffffffffffff021916908373ffffffffffffffffffffffffffffffffffffffff16021790555050565b600a6020528060005260406000206000915090508060000160009054906101000a900473ffffffffffffffffffffffffffffffffffffffff16908060010180546123b0906142de565b80601f01602080910402602001604051908101604052809291908181526020018280546123dc906142de565b80156124295780601f106123fe57610100808354040283529160200191612429565b820191906000526020600020905b81548152906001019060200180831161240c57829003601f168201915b50505050509080600201805461243e906142de565b80601f016020809104026020016040519081016040528092919081815260200182805461246a906142de565b80156124b75780601f1061248c576101008083540402835291602001916124b7565b820191906000526020600020905b81548152906001019060200180831161249a57829003601f168201915b5050505050908060030154908060040180546124d2906142de565b80601f01602080910402602001604051908101604052809291908181526020018280546124fe906142de565b801561254b5780601f106125205761010080835404028352916020019161254b565b820191906000526020600020905b81548152906001019060200180831161252e57829003601f168201915b505050505090806005018054612560906142de565b80601f016020809104026020016040519081016040528092919081815260200182805461258c906142de565b80156125d95780601f106125ae576101008083540402835291602001916125d9565b820191906000526020600020905b8154815290600101906020018083116125bc57829003601f168201915b5050505050908060060180546125ee906142de565b80601f016020809104026020016040519081016040528092919081815260200182805461261a906142de565b80156126675780601f1061263c57610100808354040283529160200191612667565b820191906000526020600020905b81548152906001019060200180831161264a57829003601f168201915b5050505050905087565b60405160200161268090613d86565b60405160208183030381529060405280519060200120600a60003373ffffffffffffffffffffffffffffffffffffffff1673ffffffffffffffffffffffffffffffffffffffff1681526020019081526020016000206002016040516020016126e89190613d6f565b604051602081830303815290604052805190602001201461273e576040517f08c379a000000000000000000000000000000000000000000000000000000000815260040161273590614032565b60405180910390fd5b60016007828154811061275457612753614417565b5b90600052602060002090600b020160080160006101000a81548160ff021916908315150217905550426007828154811061279157612790614417565b5b90600052602060002090600b02016004018190555050565b60008054906101000a900473ffffffffffffffffffffffffffffffffffffffff1673ffffffffffffffffffffffffffffffffffffffff163373ffffffffffffffffffffffffffffffffffffffff161461280157600080fd5b612809613148565b4281606001818152505083816101200181905250818160a001819052506008548160e00181815250508281610140018190525060008160c00181815250506000600b60003373ffffffffffffffffffffffffffffffffffffffff1673ffffffffffffffffffffffffffffffffffffffff16815260200190815260200160002060006101000a81548160ff021916908360018111156128aa576128a96143b9565b5b021790555060078190806001815401808255809150506001900390600052602060002090600b020160009091909190915060008201518160000190805190602001906128f79291906131d0565b5060208201518160010160006101000a81548173ffffffffffffffffffffffffffffffffffffffff021916908373ffffffffffffffffffffffffffffffffffffffff16021790555060408201518160020160006101000a81548173ffffffffffffffffffffffffffffffffffffffff021916908373ffffffffffffffffffffffffffffffffffffffff160217905550606082015181600301556080820151816004015560a08201518160050190805190602001906129b6929190613035565b5060c0820151816006015560e082015181600701556101008201518160080160006101000a81548160ff021916908315150217905550610120820151816009019080519060200190612a09929190613035565b5061014082015181600a019080519060200190612a27929190613035565b50505060086000815480929190612a3d90614341565b919050555050505050565b60078181548110612a5857600080fd5b90600052602060002090600b02016000915090508060010160009054906101000a900473ffffffffffffffffffffffffffffffffffffffff16908060020160009054906101000a900473ffffffffffffffffffffffffffffffffffffffff1690806003015490806004015490806005018054612ad3906142de565b80601f0160208091040260200160405190810160405280929190818152602001828054612aff906142de565b8015612b4c5780601f10612b2157610100808354040283529160200191612b4c565b820191906000526020600020905b815481529060010190602001808311612b2f57829003601f168201915b5050505050908060060154908060070154908060080160009054906101000a900460ff1690806009018054612b80906142de565b80601f0160208091040260200160405190810160405280929190818152602001828054612bac906142de565b8015612bf95780601f10612bce57610100808354040283529160200191612bf9565b820191906000526020600020905b815481529060010190602001808311612bdc57829003601f168201915b50505050509080600a018054612c0e906142de565b80601f0160208091040260200160405190810160405280929190818152602001828054612c3a906142de565b8015612c875780601f10612c5c57610100808354040283529160200191612c87565b820191906000526020600020905b815481529060010190602001808311612c6a57829003601f168201915b505050505090508a565b604051602001612ca090613d9b565b60405160208183030381529060405280519060200120600a60003373ffffffffffffffffffffffffffffffffffffffff1673ffffffffffffffffffffffffffffffffffffffff168152602001908152602001600020600201604051602001612d089190613d6f565b6040516020818303038152906040528051906020012014612d5e576040517f08c379a0000000000000000000000000000000000000000000000000000000008152600401612d5590614052565b60405180910390fd5b612d6661325a565b33816000019073ffffffffffffffffffffffffffffffffffffffff16908173ffffffffffffffffffffffffffffffffffffffff168152505083816060018181525050818160800181905250848160400181815250506009548160e0018181525050828160c00181815250506000600b60003373ffffffffffffffffffffffffffffffffffffffff1673ffffffffffffffffffffffffffffffffffffffff16815260200190815260200160002060006101000a81548160ff02191690836001811115612e3457612e336143b9565b5b0217905550600660003373ffffffffffffffffffffffffffffffffffffffff1673ffffffffffffffffffffffffffffffffffffffff16815260200190815260200160002081908060018154018082558091505060019003906000526020600020906009020160009091909190915060008201518160000160006101000a81548173ffffffffffffffffffffffffffffffffffffffff021916908373ffffffffffffffffffffffffffffffffffffffff16021790555060208201518160010160006101000a81548173ffffffffffffffffffffffffffffffffffffffff021916908373ffffffffffffffffffffffffffffffffffffffff16021790555060408201518160020155606082015181600301556080820151816004019080519060200190612f60929190613035565b5060a0820151816005015560c0820151816006015560e082015181600701556101008201518160080160006101000a81548160ff0219169083151502179055506101208201518160080160016101000a81548160ff021916908315150217905550505060096000815480929190612fd690614341565b91905055505050505050565b6040518060e00160405280600073ffffffffffffffffffffffffffffffffffffffff1681526020016060815260200160608152602001600081526020016060815260200160608152602001606081525090565b828054613041906142de565b90600052602060002090601f01602090048101928261306357600085556130aa565b82601f1061307c57805160ff19168380011785556130aa565b828001600101855582156130aa579182015b828111156130a957825182559160200191906001019061308e565b5b5090506130b791906132dd565b5090565b8280546130c7906142de565b90600052602060002090601f0160209004810192826130e95760008555613137565b82601f106130fa5780548555613137565b8280016001018555821561313757600052602060002091601f016020900482015b8281111561313657825482559160010191906001019061311b565b5b50905061314491906132dd565b5090565b60405180610160016040528060608152602001600073ffffffffffffffffffffffffffffffffffffffff168152602001600073ffffffffffffffffffffffffffffffffffffffff168152602001600081526020016000815260200160608152602001600081526020016000815260200160001515815260200160608152602001606081525090565b828054828255906000526020600020908101928215613249579160200282015b828111156132485782518260006101000a81548173ffffffffffffffffffffffffffffffffffffffff021916908373ffffffffffffffffffffffffffffffffffffffff160217905550916020019190600101906131f0565b5b50905061325691906132dd565b5090565b604051806101400160405280600073ffffffffffffffffffffffffffffffffffffffff168152602001600073ffffffffffffffffffffffffffffffffffffffff1681526020016000815260200160008152602001606081526020016000815260200160008152602001600081526020016000151581526020016000151581525090565b5b808211156132f65760008160009055506001016132de565b5090565b600061330d613308846140d4565b6140af565b9050828152602081018484840111156133295761332861447a565b5b61333484828561429c565b509392505050565b60008135905061334b8161453e565b92915050565b600082601f83011261336657613365614475565b5b81356133768482602086016132fa565b91505092915050565b60008135905061338e81614555565b92915050565b6000602082840312156133aa576133a9614484565b5b60006133b88482850161333c565b91505092915050565b600080604083850312156133d8576133d7614484565b5b60006133e68582860161333c565b92505060206133f78582860161337f565b9150509250929050565b60008060006060848603121561341a57613419614484565b5b600084013567ffffffffffffffff8111156134385761343761447f565b5b61344486828701613351565b935050602084013567ffffffffffffffff8111156134655761346461447f565b5b61347186828701613351565b925050604084013567ffffffffffffffff8111156134925761349161447f565b5b61349e86828701613351565b9150509250925092565b6000602082840312156134be576134bd614484565b5b60006134cc8482850161337f565b91505092915050565b600080600080608085870312156134ef576134ee614484565b5b60006134fd8782880161337f565b945050602085013567ffffffffffffffff81111561351e5761351d61447f565b5b61352a87828801613351565b935050604085013567ffffffffffffffff81111561354b5761354a61447f565b5b61355787828801613351565b925050606085013567ffffffffffffffff8111156135785761357761447f565b5b61358487828801613351565b91505092959194509250565b600080600080600060a086880312156135ac576135ab614484565b5b60006135ba8882890161337f565b955050602086013567ffffffffffffffff8111156135db576135da61447f565b5b6135e788828901613351565b945050604086013567ffffffffffffffff8111156136085761360761447f565b5b61361488828901613351565b935050606086013567ffffffffffffffff8111156136355761363461447f565b5b61364188828901613351565b925050608086013567ffffffffffffffff8111156136625761366161447f565b5b61366e88828901613351565b9150509295509295909350565b6000806000806080858703121561369557613694614484565b5b60006136a38782880161337f565b94505060206136b48782880161337f565b93505060406136c58782880161337f565b925050606085013567ffffffffffffffff8111156136e6576136e561447f565b5b6136f287828801613351565b91505092959194509250565b600061370a838361375c565b60208301905092915050565b60006137228383613abb565b905092915050565b60006137368383613bbf565b905092915050565b61374781614254565b82525050565b61375681614254565b82525050565b61376581614242565b82525050565b61377481614242565b82525050565b60006137858261414a565b61378f818561419d565b935061379a83614105565b8060005b838110156137cb5781516137b288826136fe565b97506137bd83614176565b92505060018101905061379e565b5085935050505092915050565b60006137e38261414a565b6137ed81856141ae565b93506137f883614105565b8060005b8381101561382957815161381088826136fe565b975061381b83614176565b9250506001810190506137fc565b5085935050505092915050565b600061384182614155565b61384b81856141bf565b93508360208202850161385d85614115565b8060005b85811015613899578484038952815161387a8582613716565b945061388583614183565b925060208a01995050600181019050613861565b50829750879550505050505092915050565b60006138b682614160565b6138c081856141d0565b9350836020820285016138d285614125565b8060005b8581101561390e57848403895281516138ef858261372a565b94506138fa83614190565b925060208a019950506001810190506138d6565b50829750879550505050505092915050565b61392981614266565b82525050565b61393881614266565b82525050565b60006139498261416b565b61395381856141e1565b93506139638185602086016142ab565b61396c81614489565b840191505092915050565b60006139828261416b565b61398c81856141f2565b935061399c8185602086016142ab565b6139a581614489565b840191505092915050565b600081546139bd816142de565b6139c78186614203565b945060018216600081146139e257600181146139f357613a26565b60ff19831686528186019350613a26565b6139fc85614135565b60005b83811015613a1e578154818901526001820191506020810190506139ff565b838801955050505b50505092915050565b6000613a3c600a836141f2565b9150613a478261449a565b602082019050919050565b6000613a5f600483614203565b9150613a6a826144c3565b600482019050919050565b6000613a82600483614203565b9150613a8d826144ec565b600482019050919050565b6000613aa5600a836141f2565b9150613ab082614515565b602082019050919050565b6000610160830160008301518482036000860152613ad9828261377a565b9150506020830151613aee602086018261375c565b506040830151613b01604086018261375c565b506060830151613b146060860182613d51565b506080830151613b276080860182613d51565b5060a083015184820360a0860152613b3f828261393e565b91505060c0830151613b5460c0860182613d51565b5060e0830151613b6760e0860182613d51565b50610100830151613b7c610100860182613920565b50610120830151848203610120860152613b96828261393e565b915050610140830151848203610140860152613bb2828261393e565b9150508091505092915050565b600061014083016000830151613bd8600086018261373e565b506020830151613beb602086018261373e565b506040830151613bfe6040860182613d51565b506060830151613c116060860182613d51565b5060808301518482036080860152613c29828261393e565b91505060a0830151613c3e60a0860182613d51565b5060c0830151613c5160c0860182613d51565b5060e0830151613c6460e0860182613d51565b50610100830151613c79610100860182613920565b50610120830151613c8e610120860182613920565b508091505092915050565b600060e083016000830151613cb1600086018261375c565b5060208301518482036020860152613cc9828261393e565b91505060408301518482036040860152613ce3828261393e565b9150506060830151613cf86060860182613d51565b5060808301518482036080860152613d10828261393e565b91505060a083015184820360a0860152613d2a828261393e565b91505060c083015184820360c0860152613d44828261393e565b9150508091505092915050565b613d5a81614292565b82525050565b613d6981614292565b82525050565b6000613d7b82846139b0565b915081905092915050565b6000613d9182613a52565b9150819050919050565b6000613da682613a75565b9150819050919050565b6000602082019050613dc5600083018461376b565b92915050565b600061014082019050613de1600083018d61374d565b613dee602083018c61374d565b613dfb604083018b613d60565b613e08606083018a613d60565b8181036080830152613e1a8189613977565b9050613e2960a0830188613d60565b613e3660c0830187613d60565b613e4360e0830186613d60565b613e5161010083018561392f565b613e5f61012083018461392f565b9b9a5050505050505050505050565b600061014082019050613e84600083018d61376b565b613e91602083018c61376b565b613e9e604083018b613d60565b613eab606083018a613d60565b8181036080830152613ebd8189613977565b9050613ecc60a0830188613d60565b613ed960c0830187613d60565b613ee660e083018661392f565b818103610100830152613ef98185613977565b9050818103610120830152613f0e8184613977565b90509b9a5050505050505050505050565b600060e082019050613f34600083018a61376b565b8181036020830152613f468189613977565b90508181036040830152613f5a8188613977565b9050613f696060830187613d60565b8181036080830152613f7b8186613977565b905081810360a0830152613f8f8185613977565b905081810360c0830152613fa38184613977565b905098975050505050505050565b60006020820190508181036000830152613fcb81846137d8565b905092915050565b60006020820190508181036000830152613fed8184613836565b905092915050565b6000602082019050818103600083015261400f81846138ab565b905092915050565b600060208201905061402c600083018461392f565b92915050565b6000602082019050818103600083015261404b81613a2f565b9050919050565b6000602082019050818103600083015261406b81613a98565b9050919050565b6000602082019050818103600083015261408c8184613c99565b905092915050565b60006020820190506140a96000830184613d60565b92915050565b60006140b96140ca565b90506140c58282614310565b919050565b6000604051905090565b600067ffffffffffffffff8211156140ef576140ee614446565b5b6140f882614489565b9050602081019050919050565b6000819050602082019050919050565b6000819050602082019050919050565b6000819050602082019050919050565b60008190508160005260206000209050919050565b600081519050919050565b600081519050919050565b600081519050919050565b600081519050919050565b6000602082019050919050565b6000602082019050919050565b6000602082019050919050565b600082825260208201905092915050565b600082825260208201905092915050565b600082825260208201905092915050565b600082825260208201905092915050565b600082825260208201905092915050565b600082825260208201905092915050565b600081905092915050565b600061421982614292565b915061422483614292565b9250828210156142375761423661438a565b5b828203905092915050565b600061424d82614272565b9050919050565b600061425f82614272565b9050919050565b60008115159050919050565b600073ffffffffffffffffffffffffffffffffffffffff82169050919050565b6000819050919050565b82818337600083830152505050565b60005b838110156142c95780820151818401526020810190506142ae565b838111156142d8576000848401525b50505050565b600060028204905060018216806142f657607f821691505b6020821081141561430a576143096143e8565b5b50919050565b61431982614489565b810181811067ffffffffffffffff8211171561433857614337614446565b5b80604052505050565b600061434c82614292565b91507fffffffffffffffffffffffffffffffffffffffffffffffffffffffffffffffff82141561437f5761437e61438a565b5b600182019050919050565b7f4e487b7100000000000000000000000000000000000000000000000000000000600052601160045260246000fd5b7f4e487b7100000000000000000000000000000000000000000000000000000000600052602160045260246000fd5b7f4e487b7100000000000000000000000000000000000000000000000000000000600052602260045260246000fd5b7f4e487b7100000000000000000000000000000000000000000000000000000000600052603260045260246000fd5b7f4e487b7100000000000000000000000000000000000000000000000000000000600052604160045260246000fd5b600080fd5b600080fd5b600080fd5b600080fd5b6000601f19601f8301169050919050565b7f4e4f542041205553455200000000000000000000000000000000000000000000600082015250565b7f5573657200000000000000000000000000000000000000000000000000000000600082015250565b7f486f737400000000000000000000000000000000000000000000000000000000600082015250565b7f4e4f54204120484f535400000000000000000000000000000000000000000000600082015250565b61454781614242565b811461455257600080fd5b50565b61455e81614292565b811461456957600080fd5b5056fea26469706673582212200793f157f97b2feae642c9b13f442c7e9fb19316df0363bc084dedfc8100942564736f6c63430008070033",
  "devdoc": {
    "kind": "dev",
    "methods": {
      "constructor": {
        "details": "constructor used to assign values that will not change"
      },
      "createCampaign(string,string,string)": {
        "details": "This function `createCampaign` allows only the User to call it hence the `OnlyUser` modifier after which any avaliable volunteer would be assigned to the campaign"
      },
      "createHost(uint256,string,string,string,string)": {
        "details": "This function `createHost` any body can call this functions and the senders profile would be set to that of a `Host`"
      },
      "createSchedule(uint256,uint256,uint256,string)": {
        "details": "This function `createSchedule` allows only the Host to call it hence the `OnlyHost` modifier after which a Host can create a meeting with some parameters like time and fee needed"
      },
      "createUser(uint256,string,string,string)": {
        "details": "This function `createUser` any body can call this functions and the senders profile would be set to that of a `User`"
      },
      "endCampaign(uint256)": {
        "details": "This function `endCampaign` allows only the User end the campaign"
      },
      "endMeeting()": {
        "details": "This function `endMeeting` is called by chainlink automation cron job and ends every meeting by setting the completed status to true"
      },
      "getHelp(uint256)": {
        "details": "This function `getHelo` allows only the User to call it hence the `OnlyUser` modifier after which the Campaign ID is specified and the user would be assigned to the Campaign"
      },
      "joinCampaign(uint256)": {
        "details": "This function `joinCampaign` allows only the User to call it hence the `onlyHost` modifier after which the Campaign ID is specified and the user would be assigned to the Campaign"
      },
      "joinMeeting(address,uint256)": {
        "details": "This function `joinMeeting` allows only the User to call it hence the `OnlyUser` modifier after which the meeting ID is specified and the user would be assigned to the meeting"
      }
    },
    "version": 1
  },
  "userdoc": {
    "kind": "user",
    "methods": {
      "isUser(address)": {
        "notice": "Getter Functions "
      }
    },
    "version": 1
  },
  "storageLayout": {
    "storage": [
      {
        "astId": 3,
        "contract": "contracts/XTELPT.sol:XTELPT",
        "label": "owner",
        "offset": 0,
        "slot": "0",
        "type": "t_address"
      },
      {
        "astId": 8,
        "contract": "contracts/XTELPT.sol:XTELPT",
        "label": "counter",
        "offset": 0,
        "slot": "1",
        "type": "t_uint256"
      },
      {
        "astId": 12,
        "contract": "contracts/XTELPT.sol:XTELPT",
        "label": "lastTimeStamp",
        "offset": 0,
        "slot": "2",
        "type": "t_uint256"
      },
      {
        "astId": 15,
        "contract": "contracts/XTELPT.sol:XTELPT",
        "label": "userType",
        "offset": 0,
        "slot": "3",
        "type": "t_string_storage"
      },
      {
        "astId": 18,
        "contract": "contracts/XTELPT.sol:XTELPT",
        "label": "hostType",
        "offset": 0,
        "slot": "4",
        "type": "t_string_storage"
      },
      {
        "astId": 21,
        "contract": "contracts/XTELPT.sol:XTELPT",
        "label": "volunType",
        "offset": 0,
        "slot": "5",
        "type": "t_string_storage"
      },
      {
        "astId": 27,
        "contract": "contracts/XTELPT.sol:XTELPT",
        "label": "Meeting",
        "offset": 0,
        "slot": "6",
        "type": "t_mapping(t_address,t_array(t_struct(meeting)92_storage)dyn_storage)"
      },
      {
        "astId": 31,
        "contract": "contracts/XTELPT.sol:XTELPT",
        "label": "Campaign",
        "offset": 0,
        "slot": "7",
        "type": "t_array(t_struct(campaign)116_storage)dyn_storage"
      },
      {
        "astId": 33,
        "contract": "contracts/XTELPT.sol:XTELPT",
        "label": "campaignIndex",
        "offset": 0,
        "slot": "8",
        "type": "t_uint256"
      },
      {
        "astId": 35,
        "contract": "contracts/XTELPT.sol:XTELPT",
        "label": "meetingIndex",
        "offset": 0,
        "slot": "9",
        "type": "t_uint256"
      },
      {
        "astId": 40,
        "contract": "contracts/XTELPT.sol:XTELPT",
        "label": "UserProfile",
        "offset": 0,
        "slot": "10",
        "type": "t_mapping(t_address,t_struct(profile)71_storage)"
      },
      {
        "astId": 45,
        "contract": "contracts/XTELPT.sol:XTELPT",
        "label": "s_xtelpState",
        "offset": 0,
        "slot": "11",
        "type": "t_mapping(t_address,t_enum(XTELPState)6)"
      },
      {
        "astId": 50,
        "contract": "contracts/XTELPT.sol:XTELPT",
        "label": "volunState",
        "offset": 0,
        "slot": "12",
        "type": "t_mapping(t_address,t_enum(XTELPState)6)"
      },
      {
        "astId": 53,
        "contract": "contracts/XTELPT.sol:XTELPT",
        "label": "AllAccount",
        "offset": 0,
        "slot": "13",
        "type": "t_array(t_address)dyn_storage"
      },
      {
        "astId": 56,
        "contract": "contracts/XTELPT.sol:XTELPT",
        "label": "recentCampaignCreator",
        "offset": 0,
        "slot": "14",
        "type": "t_array(t_address)dyn_storage"
      }
    ],
    "types": {
      "t_address": {
        "encoding": "inplace",
        "label": "address",
        "numberOfBytes": "20"
      },
      "t_address_payable": {
        "encoding": "inplace",
        "label": "address payable",
        "numberOfBytes": "20"
      },
      "t_array(t_address)dyn_storage": {
        "base": "t_address",
        "encoding": "dynamic_array",
        "label": "address[]",
        "numberOfBytes": "32"
      },
      "t_array(t_struct(campaign)116_storage)dyn_storage": {
        "base": "t_struct(campaign)116_storage",
        "encoding": "dynamic_array",
        "label": "struct XTELPT.campaign[]",
        "numberOfBytes": "32"
      },
      "t_array(t_struct(meeting)92_storage)dyn_storage": {
        "base": "t_struct(meeting)92_storage",
        "encoding": "dynamic_array",
        "label": "struct XTELPT.meeting[]",
        "numberOfBytes": "32"
      },
      "t_bool": {
        "encoding": "inplace",
        "label": "bool",
        "numberOfBytes": "1"
      },
      "t_enum(XTELPState)6": {
        "encoding": "inplace",
        "label": "enum XTELPT.XTELPState",
        "numberOfBytes": "1"
      },
      "t_mapping(t_address,t_array(t_struct(meeting)92_storage)dyn_storage)": {
        "encoding": "mapping",
        "key": "t_address",
        "label": "mapping(address => struct XTELPT.meeting[])",
        "numberOfBytes": "32",
        "value": "t_array(t_struct(meeting)92_storage)dyn_storage"
      },
      "t_mapping(t_address,t_enum(XTELPState)6)": {
        "encoding": "mapping",
        "key": "t_address",
        "label": "mapping(address => enum XTELPT.XTELPState)",
        "numberOfBytes": "32",
        "value": "t_enum(XTELPState)6"
      },
      "t_mapping(t_address,t_struct(profile)71_storage)": {
        "encoding": "mapping",
        "key": "t_address",
        "label": "mapping(address => struct XTELPT.profile)",
        "numberOfBytes": "32",
        "value": "t_struct(profile)71_storage"
      },
      "t_string_storage": {
        "encoding": "bytes",
        "label": "string",
        "numberOfBytes": "32"
      },
      "t_struct(campaign)116_storage": {
        "encoding": "inplace",
        "label": "struct XTELPT.campaign",
        "members": [
          {
            "astId": 95,
            "contract": "contracts/XTELPT.sol:XTELPT",
            "label": "volunteer",
            "offset": 0,
            "slot": "0",
            "type": "t_array(t_address)dyn_storage"
          },
          {
            "astId": 97,
            "contract": "contracts/XTELPT.sol:XTELPT",
            "label": "user",
            "offset": 0,
            "slot": "1",
            "type": "t_address"
          },
          {
            "astId": 99,
            "contract": "contracts/XTELPT.sol:XTELPT",
            "label": "vol",
            "offset": 0,
            "slot": "2",
            "type": "t_address"
          },
          {
            "astId": 101,
            "contract": "contracts/XTELPT.sol:XTELPT",
            "label": "start_time",
            "offset": 0,
            "slot": "3",
            "type": "t_uint256"
          },
          {
            "astId": 103,
            "contract": "contracts/XTELPT.sol:XTELPT",
            "label": "end_time",
            "offset": 0,
            "slot": "4",
            "type": "t_uint256"
          },
          {
            "astId": 105,
            "contract": "contracts/XTELPT.sol:XTELPT",
            "label": "image",
            "offset": 0,
            "slot": "5",
            "type": "t_string_storage"
          },
          {
            "astId": 107,
            "contract": "contracts/XTELPT.sol:XTELPT",
            "label": "fee",
            "offset": 0,
            "slot": "6",
            "type": "t_uint256"
          },
          {
            "astId": 109,
            "contract": "contracts/XTELPT.sol:XTELPT",
            "label": "index",
            "offset": 0,
            "slot": "7",
            "type": "t_uint256"
          },
          {
            "astId": 111,
            "contract": "contracts/XTELPT.sol:XTELPT",
            "label": "completed",
            "offset": 0,
            "slot": "8",
            "type": "t_bool"
          },
          {
            "astId": 113,
            "contract": "contracts/XTELPT.sol:XTELPT",
            "label": "name",
            "offset": 0,
            "slot": "9",
            "type": "t_string_storage"
          },
          {
            "astId": 115,
            "contract": "contracts/XTELPT.sol:XTELPT",
            "label": "desc",
            "offset": 0,
            "slot": "10",
            "type": "t_string_storage"
          }
        ],
        "numberOfBytes": "352"
      },
      "t_struct(meeting)92_storage": {
        "encoding": "inplace",
        "label": "struct XTELPT.meeting",
        "members": [
          {
            "astId": 73,
            "contract": "contracts/XTELPT.sol:XTELPT",
            "label": "host",
            "offset": 0,
            "slot": "0",
            "type": "t_address_payable"
          },
          {
            "astId": 75,
            "contract": "contracts/XTELPT.sol:XTELPT",
            "label": "user",
            "offset": 0,
            "slot": "1",
            "type": "t_address_payable"
          },
          {
            "astId": 77,
            "contract": "contracts/XTELPT.sol:XTELPT",
            "label": "start",
            "offset": 0,
            "slot": "2",
            "type": "t_uint256"
          },
          {
            "astId": 79,
            "contract": "contracts/XTELPT.sol:XTELPT",
            "label": "end",
            "offset": 0,
            "slot": "3",
            "type": "t_uint256"
          },
          {
            "astId": 81,
            "contract": "contracts/XTELPT.sol:XTELPT",
            "label": "desc",
            "offset": 0,
            "slot": "4",
            "type": "t_string_storage"
          },
          {
            "astId": 83,
            "contract": "contracts/XTELPT.sol:XTELPT",
            "label": "time",
            "offset": 0,
            "slot": "5",
            "type": "t_uint256"
          },
          {
            "astId": 85,
            "contract": "contracts/XTELPT.sol:XTELPT",
            "label": "fee",
            "offset": 0,
            "slot": "6",
            "type": "t_uint256"
          },
          {
            "astId": 87,
            "contract": "contracts/XTELPT.sol:XTELPT",
            "label": "index",
            "offset": 0,
            "slot": "7",
            "type": "t_uint256"
          },
          {
            "astId": 89,
            "contract": "contracts/XTELPT.sol:XTELPT",
            "label": "completed",
            "offset": 0,
            "slot": "8",
            "type": "t_bool"
          },
          {
            "astId": 91,
            "contract": "contracts/XTELPT.sol:XTELPT",
            "label": "booked",
            "offset": 1,
            "slot": "8",
            "type": "t_bool"
          }
        ],
        "numberOfBytes": "288"
      },
      "t_struct(profile)71_storage": {
        "encoding": "inplace",
        "label": "struct XTELPT.profile",
        "members": [
          {
            "astId": 58,
            "contract": "contracts/XTELPT.sol:XTELPT",
            "label": "addr",
            "offset": 0,
            "slot": "0",
            "type": "t_address"
          },
          {
            "astId": 60,
            "contract": "contracts/XTELPT.sol:XTELPT",
            "label": "name",
            "offset": 0,
            "slot": "1",
            "type": "t_string_storage"
          },
          {
            "astId": 62,
            "contract": "contracts/XTELPT.sol:XTELPT",
            "label": "role",
            "offset": 0,
            "slot": "2",
            "type": "t_string_storage"
          },
          {
            "astId": 64,
            "contract": "contracts/XTELPT.sol:XTELPT",
            "label": "rating",
            "offset": 0,
            "slot": "3",
            "type": "t_uint256"
          },
          {
            "astId": 66,
            "contract": "contracts/XTELPT.sol:XTELPT",
            "label": "bio",
            "offset": 0,
            "slot": "4",
            "type": "t_string_storage"
          },
          {
            "astId": 68,
            "contract": "contracts/XTELPT.sol:XTELPT",
            "label": "profilePic",
            "offset": 0,
            "slot": "5",
            "type": "t_string_storage"
          },
          {
            "astId": 70,
            "contract": "contracts/XTELPT.sol:XTELPT",
            "label": "hostTitle",
            "offset": 0,
            "slot": "6",
            "type": "t_string_storage"
          }
        ],
        "numberOfBytes": "224"
      },
      "t_uint256": {
        "encoding": "inplace",
        "label": "uint256",
        "numberOfBytes": "32"
      }
    }
  }
}