{
  "address": "0x47FB47a5136d40c55E591CA87963Aeb700f999de",
  "abi": [
    {
      "inputs": [],
      "stateMutability": "nonpayable",
      "type": "constructor"
    },
    {
      "anonymous": false,
      "inputs": [
        {
          "indexed": true,
          "internalType": "uint256",
          "name": "requestId",
          "type": "uint256"
        }
      ],
      "name": "RequestedID",
      "type": "event"
    },
    {
      "inputs": [
        {
          "internalType": "uint256",
          "name": "",
          "type": "uint256"
        }
      ],
      "name": "AllAccount",
      "outputs": [
        {
          "internalType": "address",
          "name": "",
          "type": "address"
        }
      ],
      "stateMutability": "view",
      "type": "function"
    },
    {
      "inputs": [
        {
          "internalType": "uint256",
          "name": "",
          "type": "uint256"
        }
      ],
      "name": "Campaign",
      "outputs": [
        {
          "internalType": "address",
          "name": "user",
          "type": "address"
        },
        {
          "internalType": "address",
          "name": "vol",
          "type": "address"
        },
        {
          "internalType": "uint256",
          "name": "start_time",
          "type": "uint256"
        },
        {
          "internalType": "uint256",
          "name": "end_time",
          "type": "uint256"
        },
        {
          "internalType": "string",
          "name": "image",
          "type": "string"
        },
        {
          "internalType": "uint256",
          "name": "fee",
          "type": "uint256"
        },
        {
          "internalType": "uint256",
          "name": "index",
          "type": "uint256"
        },
        {
          "internalType": "bool",
          "name": "completed",
          "type": "bool"
        },
        {
          "internalType": "string",
          "name": "name",
          "type": "string"
        },
        {
          "internalType": "string",
          "name": "desc",
          "type": "string"
        }
      ],
      "stateMutability": "view",
      "type": "function"
    },
    {
      "inputs": [
        {
          "internalType": "address",
          "name": "",
          "type": "address"
        },
        {
          "internalType": "uint256",
          "name": "",
          "type": "uint256"
        }
      ],
      "name": "Meeting",
      "outputs": [
        {
          "internalType": "address payable",
          "name": "host",
          "type": "address"
        },
        {
          "internalType": "address payable",
          "name": "user",
          "type": "address"
        },
        {
          "internalType": "uint256",
          "name": "start",
          "type": "uint256"
        },
        {
          "internalType": "uint256",
          "name": "end",
          "type": "uint256"
        },
        {
          "internalType": "string",
          "name": "desc",
          "type": "string"
        },
        {
          "internalType": "uint256",
          "name": "time",
          "type": "uint256"
        },
        {
          "internalType": "uint256",
          "name": "fee",
          "type": "uint256"
        },
        {
          "internalType": "uint256",
          "name": "index",
          "type": "uint256"
        },
        {
          "internalType": "bool",
          "name": "completed",
          "type": "bool"
        },
        {
          "internalType": "bool",
          "name": "booked",
          "type": "bool"
        }
      ],
      "stateMutability": "view",
      "type": "function"
    },
    {
      "inputs": [
        {
          "internalType": "address",
          "name": "",
          "type": "address"
        }
      ],
      "name": "UserProfile",
      "outputs": [
        {
          "internalType": "address",
          "name": "addr",
          "type": "address"
        },
        {
          "internalType": "string",
          "name": "name",
          "type": "string"
        },
        {
          "internalType": "string",
          "name": "role",
          "type": "string"
        },
        {
          "internalType": "uint256",
          "name": "rating",
          "type": "uint256"
        },
        {
          "internalType": "string",
          "name": "bio",
          "type": "string"
        },
        {
          "internalType": "string",
          "name": "profilePic",
          "type": "string"
        },
        {
          "internalType": "string",
          "name": "hostTitle",
          "type": "string"
        }
      ],
      "stateMutability": "view",
      "type": "function"
    },
    {
      "inputs": [],
      "name": "campaignIndex",
      "outputs": [
        {
          "internalType": "uint256",
          "name": "",
          "type": "uint256"
        }
      ],
      "stateMutability": "view",
      "type": "function"
    },
    {
      "inputs": [],
      "name": "campaignNum",
      "outputs": [
        {
          "internalType": "uint256",
          "name": "",
          "type": "uint256"
        }
      ],
      "stateMutability": "view",
      "type": "function"
    },
    {
      "inputs": [],
      "name": "counter",
      "outputs": [
        {
          "internalType": "uint256",
          "name": "",
          "type": "uint256"
        }
      ],
      "stateMutability": "view",
      "type": "function"
    },
    {
      "inputs": [
        {
          "internalType": "string",
          "name": "_name",
          "type": "string"
        },
        {
          "internalType": "string",
          "name": "_desc",
          "type": "string"
        },
        {
          "internalType": "string",
          "name": "_image",
          "type": "string"
        }
      ],
      "name": "createCampaign",
      "outputs": [],
      "stateMutability": "nonpayable",
      "type": "function"
    },
    {
      "inputs": [
        {
          "internalType": "uint256",
          "name": "_rating",
          "type": "uint256"
        },
        {
          "internalType": "string",
          "name": "_name",
          "type": "string"
        },
        {
          "internalType": "string",
          "name": "_pic",
          "type": "string"
        },
        {
          "internalType": "string",
          "name": "_bio",
          "type": "string"
        },
        {
          "internalType": "string",
          "name": "_title",
          "type": "string"
        }
      ],
      "name": "createHost",
      "outputs": [],
      "stateMutability": "nonpayable",
      "type": "function"
    },
    {
      "inputs": [
        {
          "internalType": "uint256",
          "name": "_start",
          "type": "uint256"
        },
        {
          "internalType": "uint256",
          "name": "_end",
          "type": "uint256"
        },
        {
          "internalType": "string",
          "name": "_desc",
          "type": "string"
        }
      ],
      "name": "createSchedule",
      "outputs": [],
      "stateMutability": "nonpayable",
      "type": "function"
    },
    {
      "inputs": [
        {
          "internalType": "uint256",
          "name": "_rating",
          "type": "uint256"
        },
        {
          "internalType": "string",
          "name": "_name",
          "type": "string"
        },
        {
          "internalType": "string",
          "name": "_pic",
          "type": "string"
        },
        {
          "internalType": "string",
          "name": "_bio",
          "type": "string"
        }
      ],
      "name": "createUser",
      "outputs": [],
      "stateMutability": "nonpayable",
      "type": "function"
    },
    {
      "inputs": [
        {
          "internalType": "uint256",
          "name": "_id",
          "type": "uint256"
        }
      ],
      "name": "endCampaign",
      "outputs": [],
      "stateMutability": "nonpayable",
      "type": "function"
    },
    {
      "inputs": [],
      "name": "endMeeting",
      "outputs": [],
      "stateMutability": "nonpayable",
      "type": "function"
    },
    {
      "inputs": [],
      "name": "getAllAccount",
      "outputs": [
        {
          "internalType": "address[]",
          "name": "",
          "type": "address[]"
        }
      ],
      "stateMutability": "view",
      "type": "function"
    },
    {
      "inputs": [],
      "name": "getCampaign",
      "outputs": [
        {
          "components": [
            {
              "internalType": "address[]",
              "name": "volunteer",
              "type": "address[]"
            },
            {
              "internalType": "address",
              "name": "user",
              "type": "address"
            },
            {
              "internalType": "address",
              "name": "vol",
              "type": "address"
            },
            {
              "internalType": "uint256",
              "name": "start_time",
              "type": "uint256"
            },
            {
              "internalType": "uint256",
              "name": "end_time",
              "type": "uint256"
            },
            {
              "internalType": "string",
              "name": "image",
              "type": "string"
            },
            {
              "internalType": "uint256",
              "name": "fee",
              "type": "uint256"
            },
            {
              "internalType": "uint256",
              "name": "index",
              "type": "uint256"
            },
            {
              "internalType": "bool",
              "name": "completed",
              "type": "bool"
            },
            {
              "internalType": "string",
              "name": "name",
              "type": "string"
            },
            {
              "internalType": "string",
              "name": "desc",
              "type": "string"
            }
          ],
          "internalType": "struct XTELPT.campaign[]",
          "name": "",
          "type": "tuple[]"
        }
      ],
      "stateMutability": "view",
      "type": "function"
    },
    {
      "inputs": [
        {
          "internalType": "uint256",
          "name": "_id",
          "type": "uint256"
        }
      ],
      "name": "getHelp",
      "outputs": [],
      "stateMutability": "nonpayable",
      "type": "function"
    },
    {
      "inputs": [
        {
          "internalType": "address",
          "name": "_prof",
          "type": "address"
        }
      ],
      "name": "getMeeting",
      "outputs": [
        {
          "components": [
            {
              "internalType": "address payable",
              "name": "host",
              "type": "address"
            },
            {
              "internalType": "address payable",
              "name": "user",
              "type": "address"
            },
            {
              "internalType": "uint256",
              "name": "start",
              "type": "uint256"
            },
            {
              "internalType": "uint256",
              "name": "end",
              "type": "uint256"
            },
            {
              "internalType": "string",
              "name": "desc",
              "type": "string"
            },
            {
              "internalType": "uint256",
              "name": "time",
              "type": "uint256"
            },
            {
              "internalType": "uint256",
              "name": "fee",
              "type": "uint256"
            },
            {
              "internalType": "uint256",
              "name": "index",
              "type": "uint256"
            },
            {
              "internalType": "bool",
              "name": "completed",
              "type": "bool"
            },
            {
              "internalType": "bool",
              "name": "booked",
              "type": "bool"
            }
          ],
          "internalType": "struct XTELPT.meeting[]",
          "name": "",
          "type": "tuple[]"
        }
      ],
      "stateMutability": "view",
      "type": "function"
    },
    {
      "inputs": [
        {
          "internalType": "address",
          "name": "userAdd",
          "type": "address"
        }
      ],
      "name": "getProfile",
      "outputs": [
        {
          "components": [
            {
              "internalType": "address",
              "name": "addr",
              "type": "address"
            },
            {
              "internalType": "string",
              "name": "name",
              "type": "string"
            },
            {
              "internalType": "string",
              "name": "role",
              "type": "string"
            },
            {
              "internalType": "uint256",
              "name": "rating",
              "type": "uint256"
            },
            {
              "internalType": "string",
              "name": "bio",
              "type": "string"
            },
            {
              "internalType": "string",
              "name": "profilePic",
              "type": "string"
            },
            {
              "internalType": "string",
              "name": "hostTitle",
              "type": "string"
            }
          ],
          "internalType": "struct XTELPT.profile",
          "name": "",
          "type": "tuple"
        }
      ],
      "stateMutability": "view",
      "type": "function"
    },
    {
      "inputs": [],
      "name": "interval",
      "outputs": [
        {
          "internalType": "uint256",
          "name": "",
          "type": "uint256"
        }
      ],
      "stateMutability": "view",
      "type": "function"
    },
    {
      "inputs": [
        {
          "internalType": "address",
          "name": "addr",
          "type": "address"
        }
      ],
      "name": "isUser",
      "outputs": [
        {
          "internalType": "bool",
          "name": "",
          "type": "bool"
        }
      ],
      "stateMutability": "view",
      "type": "function"
    },
    {
      "inputs": [
        {
          "internalType": "uint256",
          "name": "_id",
          "type": "uint256"
        }
      ],
      "name": "joinCampaign",
      "outputs": [],
      "stateMutability": "nonpayable",
      "type": "function"
    },
    {
      "inputs": [
        {
          "internalType": "address",
          "name": "_host",
          "type": "address"
        },
        {
          "internalType": "uint256",
          "name": "_id",
          "type": "uint256"
        }
      ],
      "name": "joinMeeting",
      "outputs": [],
      "stateMutability": "nonpayable",
      "type": "function"
    },
    {
      "inputs": [],
      "name": "lastTimeStamp",
      "outputs": [
        {
          "internalType": "uint256",
          "name": "",
          "type": "uint256"
        }
      ],
      "stateMutability": "view",
      "type": "function"
    },
    {
      "inputs": [],
      "name": "meetingIndex",
      "outputs": [
        {
          "internalType": "uint256",
          "name": "",
          "type": "uint256"
        }
      ],
      "stateMutability": "view",
      "type": "function"
    },
    {
      "inputs": [],
      "name": "meetingNum",
      "outputs": [
        {
          "internalType": "uint256",
          "name": "",
          "type": "uint256"
        }
      ],
      "stateMutability": "view",
      "type": "function"
    },
    {
      "inputs": [],
      "name": "owner",
      "outputs": [
        {
          "internalType": "address",
          "name": "",
          "type": "address"
        }
      ],
      "stateMutability": "view",
      "type": "function"
    },
    {
      "inputs": [
        {
          "internalType": "uint256",
          "name": "",
          "type": "uint256"
        }
      ],
      "name": "recentCampaignCreator",
      "outputs": [
        {
          "internalType": "address",
          "name": "",
          "type": "address"
        }
      ],
      "stateMutability": "view",
      "type": "function"
    }
  ],
  "transactionHash": "0x752923895311df37943f4840ceb9201b18fcde592e95006acec7e78ed1c97f79",
  "args": [],
  "numDeployments": 23,
  "solcInputHash": "e24145cea9389c52e2c285a253992176",
  "bytecode": "0x60a06040526040518060400160405280600481526020017f5573657200000000000000000000000000000000000000000000000000000000815250600390805190602001906200005192919062000229565b506040518060400160405280600481526020017f486f737400000000000000000000000000000000000000000000000000000000815250600490805190602001906200009f92919062000229565b506040518060400160405280600581526020017f566f6c756e00000000000000000000000000000000000000000000000000000081525060059080519060200190620000ed92919062000229565b50348015620000fb57600080fd5b50336000806101000a81548173ffffffffffffffffffffffffffffffffffffffff021916908373ffffffffffffffffffffffffffffffffffffffff160217905550426002819055506000600b60003373ffffffffffffffffffffffffffffffffffffffff1673ffffffffffffffffffffffffffffffffffffffff16815260200190815260200160002060006101000a81548160ff02191690836001811115620001a957620001a86200030f565b5b02179055506000600c60003373ffffffffffffffffffffffffffffffffffffffff1673ffffffffffffffffffffffffffffffffffffffff16815260200190815260200160002060006101000a81548160ff021916908360018111156200021457620002136200030f565b5b021790555061012c608081815250506200036d565b8280546200023790620002d9565b90600052602060002090601f0160209004810192826200025b5760008555620002a7565b82601f106200027657805160ff1916838001178555620002a7565b82800160010185558215620002a7579182015b82811115620002a657825182559160200191906001019062000289565b5b509050620002b69190620002ba565b5090565b5b80821115620002d5576000816000905550600101620002bb565b5090565b60006002820490506001821680620002f257607f821691505b602082108114156200030957620003086200033e565b5b50919050565b7f4e487b7100000000000000000000000000000000000000000000000000000000600052602160045260246000fd5b7f4e487b7100000000000000000000000000000000000000000000000000000000600052602260045260246000fd5b608051614449620003896000396000611f0a01526144496000f3fe608060405234801561001057600080fd5b50600436106101a95760003560e01c80637d74311c116100f9578063c5e0cfd011610097578063d7358c5e11610071578063d7358c5e146104b5578063dd0408ae146104eb578063e34116de14610507578063e9323db614610523576101a9565b8063c5e0cfd01461045f578063cb40bf601461047d578063d4a82a5814610499576101a9565b8063947a36fb116100d3578063947a36fb146103d7578063960ccccc146103f55780639dc5368d14610411578063b16cfdd41461042f576101a9565b80637d74311c1461036d5780637eac3d92146103895780638da5cb5b146103b9576101a9565b8063550c18d71161016657806361bc221a1161014057806361bc221a14610309578063680908c91461032757806370af1dd214610345578063766c21a21461034f576101a9565b8063550c18d7146102b357806356361f0d146102cf5780635d5be658146102ed576101a9565b80630f53a470146101ae578063236b8e3a146101de57806324b9ed2d146101fc5780632dd47fc91461022c5780633f3b3b27146102655780634209fff114610283575b600080fd5b6101c860048036038101906101c3919061324f565b61055c565b6040516101d59190613f19565b60405180910390f35b6101e66108ef565b6040516101f39190613e7a565b60405180910390f35b6102166004803603810190610211919061324f565b610c82565b6040516102239190613e9c565b60405180910390f35b6102466004803603810190610241919061327c565b610ec7565b60405161025c9a99989796959493929190613c72565b60405180910390f35b61026d61101a565b60405161027a9190613f3b565b60405180910390f35b61029d6004803603810190610298919061324f565b611020565b6040516102aa9190613ebe565b60405180910390f35b6102cd60048036038101906102c8919061344b565b6110f8565b005b6102d76114e2565b6040516102e49190613f3b565b60405180910390f35b61030760048036038101906103029190613536565b6114e8565b005b610311611839565b60405161031e9190613f3b565b60405180910390f35b61032f61183f565b60405161033c9190613f3b565b60405180910390f35b61034d611849565b005b610357611b75565b6040516103649190613f3b565b60405180910390f35b61038760048036038101906103829190613390565b611b7b565b005b6103a3600480360381019061039e9190613363565b611ea5565b6040516103b09190613c57565b60405180910390f35b6103c1611ee4565b6040516103ce9190613c57565b60405180910390f35b6103df611f08565b6040516103ec9190613f3b565b60405180910390f35b61040f600480360381019061040a9190613363565b611f2c565b005b610419612159565b6040516104269190613e58565b60405180910390f35b61044960048036038101906104449190613363565b6121e7565b6040516104569190613c57565b60405180910390f35b610467612226565b6040516104749190613f3b565b60405180910390f35b6104976004803603810190610492919061327c565b612230565b005b6104b360048036038101906104ae9190613363565b61241d565b005b6104cf60048036038101906104ca919061324f565b612573565b6040516104e29796959493929190613dc6565b60405180910390f35b61050560048036038101906105009190613363565b61287d565b005b610521600480360381019061051c91906132bc565b6129b5565b005b61053d60048036038101906105389190613363565b612c54565b6040516105539a99989796959493929190613d15565b60405180910390f35b610564612e9d565b600a60008373ffffffffffffffffffffffffffffffffffffffff1673ffffffffffffffffffffffffffffffffffffffff1681526020019081526020016000206040518060e00160405290816000820160009054906101000a900473ffffffffffffffffffffffffffffffffffffffff1673ffffffffffffffffffffffffffffffffffffffff1673ffffffffffffffffffffffffffffffffffffffff16815260200160018201805461061490614185565b80601f016020809104026020016040519081016040528092919081815260200182805461064090614185565b801561068d5780601f106106625761010080835404028352916020019161068d565b820191906000526020600020905b81548152906001019060200180831161067057829003601f168201915b505050505081526020016002820180546106a690614185565b80601f01602080910402602001604051908101604052809291908181526020018280546106d290614185565b801561071f5780601f106106f45761010080835404028352916020019161071f565b820191906000526020600020905b81548152906001019060200180831161070257829003601f168201915b505050505081526020016003820154815260200160048201805461074290614185565b80601f016020809104026020016040519081016040528092919081815260200182805461076e90614185565b80156107bb5780601f10610790576101008083540402835291602001916107bb565b820191906000526020600020905b81548152906001019060200180831161079e57829003601f168201915b505050505081526020016005820180546107d490614185565b80601f016020809104026020016040519081016040528092919081815260200182805461080090614185565b801561084d5780601f106108225761010080835404028352916020019161084d565b820191906000526020600020905b81548152906001019060200180831161083057829003601f168201915b5050505050815260200160068201805461086690614185565b80601f016020809104026020016040519081016040528092919081815260200182805461089290614185565b80156108df5780601f106108b4576101008083540402835291602001916108df565b820191906000526020600020905b8154815290600101906020018083116108c257829003601f168201915b5050505050815250509050919050565b60606007805480602002602001604051908101604052809291908181526020016000905b82821015610c7957838290600052602060002090600b020160405180610160016040529081600082018054806020026020016040519081016040528092919081815260200182805480156109bc57602002820191906000526020600020905b8160009054906101000a900473ffffffffffffffffffffffffffffffffffffffff1673ffffffffffffffffffffffffffffffffffffffff1681526020019060010190808311610972575b505050505081526020016001820160009054906101000a900473ffffffffffffffffffffffffffffffffffffffff1673ffffffffffffffffffffffffffffffffffffffff1673ffffffffffffffffffffffffffffffffffffffff1681526020016002820160009054906101000a900473ffffffffffffffffffffffffffffffffffffffff1673ffffffffffffffffffffffffffffffffffffffff1673ffffffffffffffffffffffffffffffffffffffff1681526020016003820154815260200160048201548152602001600582018054610a9590614185565b80601f0160208091040260200160405190810160405280929190818152602001828054610ac190614185565b8015610b0e5780601f10610ae357610100808354040283529160200191610b0e565b820191906000526020600020905b815481529060010190602001808311610af157829003601f168201915b5050505050815260200160068201548152602001600782015481526020016008820160009054906101000a900460ff16151515158152602001600982018054610b5690614185565b80601f0160208091040260200160405190810160405280929190818152602001828054610b8290614185565b8015610bcf5780601f10610ba457610100808354040283529160200191610bcf565b820191906000526020600020905b815481529060010190602001808311610bb257829003601f168201915b50505050508152602001600a82018054610be890614185565b80601f0160208091040260200160405190810160405280929190818152602001828054610c1490614185565b8015610c615780601f10610c3657610100808354040283529160200191610c61565b820191906000526020600020905b815481529060010190602001808311610c4457829003601f168201915b50505050508152505081526020019060010190610913565b50505050905090565b6060600660008373ffffffffffffffffffffffffffffffffffffffff1673ffffffffffffffffffffffffffffffffffffffff168152602001908152602001600020805480602002602001604051908101604052809291908181526020016000905b82821015610ebc5783829060005260206000209060090201604051806101400160405290816000820160009054906101000a900473ffffffffffffffffffffffffffffffffffffffff1673ffffffffffffffffffffffffffffffffffffffff1673ffffffffffffffffffffffffffffffffffffffff1681526020016001820160009054906101000a900473ffffffffffffffffffffffffffffffffffffffff1673ffffffffffffffffffffffffffffffffffffffff1673ffffffffffffffffffffffffffffffffffffffff1681526020016002820154815260200160038201548152602001600482018054610dd790614185565b80601f0160208091040260200160405190810160405280929190818152602001828054610e0390614185565b8015610e505780601f10610e2557610100808354040283529160200191610e50565b820191906000526020600020905b815481529060010190602001808311610e3357829003601f168201915b505050505081526020016005820154815260200160068201548152602001600782015481526020016008820160009054906101000a900460ff161515151581526020016008820160019054906101000a900460ff16151515158152505081526020019060010190610ce3565b505050509050919050565b60066020528160005260406000208181548110610ee357600080fd5b9060005260206000209060090201600091509150508060000160009054906101000a900473ffffffffffffffffffffffffffffffffffffffff16908060010160009054906101000a900473ffffffffffffffffffffffffffffffffffffffff1690806002015490806003015490806004018054610f5f90614185565b80601f0160208091040260200160405190810160405280929190818152602001828054610f8b90614185565b8015610fd85780601f10610fad57610100808354040283529160200191610fd8565b820191906000526020600020905b815481529060010190602001808311610fbb57829003601f168201915b5050505050908060050154908060060154908060070154908060080160009054906101000a900460ff16908060080160019054906101000a900460ff1690508a565b60025481565b600060405160200161103190613c2d565b60405160208183030381529060405280519060200120600a60008473ffffffffffffffffffffffffffffffffffffffff1673ffffffffffffffffffffffffffffffffffffffff1681526020019081526020016000206002016040516020016110999190613c16565b60405160208183030381529060405280519060200120146110ef576040517f08c379a00000000000000000000000000000000000000000000000000000000081526004016110e690613ed9565b60405180910390fd5b60019050919050565b600073ffffffffffffffffffffffffffffffffffffffff16600a60003373ffffffffffffffffffffffffffffffffffffffff1673ffffffffffffffffffffffffffffffffffffffff16815260200190815260200160002060000160009054906101000a900473ffffffffffffffffffffffffffffffffffffffff1673ffffffffffffffffffffffffffffffffffffffff1614156111f357600d339080600181540180825580915050600190039060005260206000200160009091909190916101000a81548173ffffffffffffffffffffffffffffffffffffffff021916908373ffffffffffffffffffffffffffffffffffffffff1602179055505b6000600b60003373ffffffffffffffffffffffffffffffffffffffff1673ffffffffffffffffffffffffffffffffffffffff16815260200190815260200160002060006101000a81548160ff0219169083600181111561125657611255614260565b5b021790555033600a60003373ffffffffffffffffffffffffffffffffffffffff1673ffffffffffffffffffffffffffffffffffffffff16815260200190815260200160002060000160006101000a81548173ffffffffffffffffffffffffffffffffffffffff021916908373ffffffffffffffffffffffffffffffffffffffff16021790555083600a60003373ffffffffffffffffffffffffffffffffffffffff1673ffffffffffffffffffffffffffffffffffffffff1681526020019081526020016000206001019080519060200190611332929190612ef0565b5080600a60003373ffffffffffffffffffffffffffffffffffffffff1673ffffffffffffffffffffffffffffffffffffffff1681526020019081526020016000206006019080519060200190611389929190612ef0565b5084600a60003373ffffffffffffffffffffffffffffffffffffffff1673ffffffffffffffffffffffffffffffffffffffff168152602001908152602001600020600301819055506004600a60003373ffffffffffffffffffffffffffffffffffffffff1673ffffffffffffffffffffffffffffffffffffffff16815260200190815260200160002060020190805461142190614185565b61142c929190612f76565b5082600a60003373ffffffffffffffffffffffffffffffffffffffff1673ffffffffffffffffffffffffffffffffffffffff1681526020019081526020016000206005019080519060200190611483929190612ef0565b5081600a60003373ffffffffffffffffffffffffffffffffffffffff1673ffffffffffffffffffffffffffffffffffffffff16815260200190815260200160002060040190805190602001906114da929190612ef0565b505050505050565b60085481565b6040516020016114f790613c42565b60405160208183030381529060405280519060200120600a60003373ffffffffffffffffffffffffffffffffffffffff1673ffffffffffffffffffffffffffffffffffffffff16815260200190815260200160002060020160405160200161155f9190613c16565b60405160208183030381529060405280519060200120146115b5576040517f08c379a00000000000000000000000000000000000000000000000000000000081526004016115ac90613ef9565b60405180910390fd5b6115bd613003565b33816000019073ffffffffffffffffffffffffffffffffffffffff16908173ffffffffffffffffffffffffffffffffffffffff168152505082816060018181525050818160800181905250838160400181815250506009548160e001818152505060008160c00181815250506000600b60003373ffffffffffffffffffffffffffffffffffffffff1673ffffffffffffffffffffffffffffffffffffffff16815260200190815260200160002060006101000a81548160ff0219169083600181111561168c5761168b614260565b5b0217905550600660003373ffffffffffffffffffffffffffffffffffffffff1673ffffffffffffffffffffffffffffffffffffffff16815260200190815260200160002081908060018154018082558091505060019003906000526020600020906009020160009091909190915060008201518160000160006101000a81548173ffffffffffffffffffffffffffffffffffffffff021916908373ffffffffffffffffffffffffffffffffffffffff16021790555060208201518160010160006101000a81548173ffffffffffffffffffffffffffffffffffffffff021916908373ffffffffffffffffffffffffffffffffffffffff160217905550604082015181600201556060820151816003015560808201518160040190805190602001906117b8929190612ef0565b5060a0820151816005015560c0820151816006015560e082015181600701556101008201518160080160006101000a81548160ff0219169083151502179055506101208201518160080160016101000a81548160ff02191690831515021790555050506009600081548092919061182e906141e8565b919050555050505050565b60015481565b6000600954905090565b60005b600d80549050811015611b725760005b60066000600d8481548110611874576118736142be565b5b9060005260206000200160009054906101000a900473ffffffffffffffffffffffffffffffffffffffff1673ffffffffffffffffffffffffffffffffffffffff1673ffffffffffffffffffffffffffffffffffffffff16815260200190815260200160002080549050811015611b5e57600160066000600d85815481106118fe576118fd6142be565b5b9060005260206000200160009054906101000a900473ffffffffffffffffffffffffffffffffffffffff1673ffffffffffffffffffffffffffffffffffffffff1673ffffffffffffffffffffffffffffffffffffffff1681526020019081526020016000208281548110611975576119746142be565b5b906000526020600020906009020160080160006101000a81548160ff0219169083151502179055504260028190555060066000600d84815481106119bc576119bb6142be565b5b9060005260206000200160009054906101000a900473ffffffffffffffffffffffffffffffffffffffff1673ffffffffffffffffffffffffffffffffffffffff1673ffffffffffffffffffffffffffffffffffffffff1681526020019081526020016000208181548110611a3357611a326142be565b5b906000526020600020906009020160000160009054906101000a900473ffffffffffffffffffffffffffffffffffffffff1673ffffffffffffffffffffffffffffffffffffffff166108fc60066000600d8681548110611a9657611a956142be565b5b9060005260206000200160009054906101000a900473ffffffffffffffffffffffffffffffffffffffff1673ffffffffffffffffffffffffffffffffffffffff1673ffffffffffffffffffffffffffffffffffffffff1681526020019081526020016000208381548110611b0d57611b0c6142be565b5b9060005260206000209060090201600601549081150290604051600060405180830381858888f19350505050158015611b4a573d6000803e3d6000fd5b508080611b56906141e8565b91505061185c565b508080611b6a906141e8565b91505061184c565b50565b60095481565b600073ffffffffffffffffffffffffffffffffffffffff16600a60003373ffffffffffffffffffffffffffffffffffffffff1673ffffffffffffffffffffffffffffffffffffffff16815260200190815260200160002060000160009054906101000a900473ffffffffffffffffffffffffffffffffffffffff1673ffffffffffffffffffffffffffffffffffffffff161415611c7657600d339080600181540180825580915050600190039060005260206000200160009091909190916101000a81548173ffffffffffffffffffffffffffffffffffffffff021916908373ffffffffffffffffffffffffffffffffffffffff1602179055505b33600a60003373ffffffffffffffffffffffffffffffffffffffff1673ffffffffffffffffffffffffffffffffffffffff16815260200190815260200160002060000160006101000a81548173ffffffffffffffffffffffffffffffffffffffff021916908373ffffffffffffffffffffffffffffffffffffffff16021790555082600a60003373ffffffffffffffffffffffffffffffffffffffff1673ffffffffffffffffffffffffffffffffffffffff1681526020019081526020016000206001019080519060200190611d4d929190612ef0565b5083600a60003373ffffffffffffffffffffffffffffffffffffffff1673ffffffffffffffffffffffffffffffffffffffff168152602001908152602001600020600301819055506003600a60003373ffffffffffffffffffffffffffffffffffffffff1673ffffffffffffffffffffffffffffffffffffffff168152602001908152602001600020600201908054611de590614185565b611df0929190612f76565b5081600a60003373ffffffffffffffffffffffffffffffffffffffff1673ffffffffffffffffffffffffffffffffffffffff1681526020019081526020016000206005019080519060200190611e47929190612ef0565b5080600a60003373ffffffffffffffffffffffffffffffffffffffff1673ffffffffffffffffffffffffffffffffffffffff1681526020019081526020016000206004019080519060200190611e9e929190612ef0565b5050505050565b600d8181548110611eb557600080fd5b906000526020600020016000915054906101000a900473ffffffffffffffffffffffffffffffffffffffff1681565b60008054906101000a900473ffffffffffffffffffffffffffffffffffffffff1681565b7f000000000000000000000000000000000000000000000000000000000000000081565b604051602001611f3b90613c2d565b60405160208183030381529060405280519060200120600a60003373ffffffffffffffffffffffffffffffffffffffff1673ffffffffffffffffffffffffffffffffffffffff168152602001908152602001600020600201604051602001611fa39190613c16565b6040516020818303038152906040528051906020012014611ff9576040517f08c379a0000000000000000000000000000000000000000000000000000000008152600401611ff090613ed9565b60405180910390fd5b336007828154811061200e5761200d6142be565b5b90600052602060002090600b020160010160006101000a81548173ffffffffffffffffffffffffffffffffffffffff021916908373ffffffffffffffffffffffffffffffffffffffff16021790555060078181548110612071576120706142be565b5b90600052602060002090600b0201600001600160078381548110612098576120976142be565b5b90600052602060002090600b0201600001805490506120b791906140b5565b815481106120c8576120c76142be565b5b9060005260206000200160009054906101000a900473ffffffffffffffffffffffffffffffffffffffff1660078281548110612107576121066142be565b5b90600052602060002090600b020160020160006101000a81548173ffffffffffffffffffffffffffffffffffffffff021916908373ffffffffffffffffffffffffffffffffffffffff16021790555050565b6060600d8054806020026020016040519081016040528092919081815260200182805480156121dd57602002820191906000526020600020905b8160009054906101000a900473ffffffffffffffffffffffffffffffffffffffff1673ffffffffffffffffffffffffffffffffffffffff1681526020019060010190808311612193575b5050505050905090565b600e81815481106121f757600080fd5b906000526020600020016000915054906101000a900473ffffffffffffffffffffffffffffffffffffffff1681565b6000600854905090565b60405160200161223f90613c2d565b60405160208183030381529060405280519060200120600a60003373ffffffffffffffffffffffffffffffffffffffff1673ffffffffffffffffffffffffffffffffffffffff1681526020019081526020016000206002016040516020016122a79190613c16565b60405160208183030381529060405280519060200120146122fd576040517f08c379a00000000000000000000000000000000000000000000000000000000081526004016122f490613ed9565b60405180910390fd5b33600660008473ffffffffffffffffffffffffffffffffffffffff1673ffffffffffffffffffffffffffffffffffffffff168152602001908152602001600020828154811061234f5761234e6142be565b5b906000526020600020906009020160010160006101000a81548173ffffffffffffffffffffffffffffffffffffffff021916908373ffffffffffffffffffffffffffffffffffffffff1602179055506001600660008473ffffffffffffffffffffffffffffffffffffffff1673ffffffffffffffffffffffffffffffffffffffff16815260200190815260200160002082815481106123f1576123f06142be565b5b906000526020600020906009020160080160016101000a81548160ff0219169083151502179055505050565b60405160200161242c90613c42565b60405160208183030381529060405280519060200120600a60003373ffffffffffffffffffffffffffffffffffffffff1673ffffffffffffffffffffffffffffffffffffffff1681526020019081526020016000206002016040516020016124949190613c16565b60405160208183030381529060405280519060200120146124ea576040517f08c379a00000000000000000000000000000000000000000000000000000000081526004016124e190613ef9565b60405180910390fd5b600781815481106124fe576124fd6142be565b5b90600052602060002090600b0201600001339080600181540180825580915050600190039060005260206000200160009091909190916101000a81548173ffffffffffffffffffffffffffffffffffffffff021916908373ffffffffffffffffffffffffffffffffffffffff16021790555050565b600a6020528060005260406000206000915090508060000160009054906101000a900473ffffffffffffffffffffffffffffffffffffffff16908060010180546125bc90614185565b80601f01602080910402602001604051908101604052809291908181526020018280546125e890614185565b80156126355780601f1061260a57610100808354040283529160200191612635565b820191906000526020600020905b81548152906001019060200180831161261857829003601f168201915b50505050509080600201805461264a90614185565b80601f016020809104026020016040519081016040528092919081815260200182805461267690614185565b80156126c35780601f10612698576101008083540402835291602001916126c3565b820191906000526020600020905b8154815290600101906020018083116126a657829003601f168201915b5050505050908060030154908060040180546126de90614185565b80601f016020809104026020016040519081016040528092919081815260200182805461270a90614185565b80156127575780601f1061272c57610100808354040283529160200191612757565b820191906000526020600020905b81548152906001019060200180831161273a57829003601f168201915b50505050509080600501805461276c90614185565b80601f016020809104026020016040519081016040528092919081815260200182805461279890614185565b80156127e55780601f106127ba576101008083540402835291602001916127e5565b820191906000526020600020905b8154815290600101906020018083116127c857829003601f168201915b5050505050908060060180546127fa90614185565b80601f016020809104026020016040519081016040528092919081815260200182805461282690614185565b80156128735780601f1061284857610100808354040283529160200191612873565b820191906000526020600020905b81548152906001019060200180831161285657829003601f168201915b5050505050905087565b60405160200161288c90613c2d565b60405160208183030381529060405280519060200120600a60003373ffffffffffffffffffffffffffffffffffffffff1673ffffffffffffffffffffffffffffffffffffffff1681526020019081526020016000206002016040516020016128f49190613c16565b604051602081830303815290604052805190602001201461294a576040517f08c379a000000000000000000000000000000000000000000000000000000000815260040161294190613ed9565b60405180910390fd5b6001600782815481106129605761295f6142be565b5b90600052602060002090600b020160080160006101000a81548160ff021916908315150217905550426007828154811061299d5761299c6142be565b5b90600052602060002090600b02016004018190555050565b60008054906101000a900473ffffffffffffffffffffffffffffffffffffffff1673ffffffffffffffffffffffffffffffffffffffff163373ffffffffffffffffffffffffffffffffffffffff1614612a0d57600080fd5b612a15613086565b4281606001818152505083816101200181905250818160a001819052506008548160e00181815250508281610140018190525060008160c00181815250506000600b60003373ffffffffffffffffffffffffffffffffffffffff1673ffffffffffffffffffffffffffffffffffffffff16815260200190815260200160002060006101000a81548160ff02191690836001811115612ab657612ab5614260565b5b021790555060078190806001815401808255809150506001900390600052602060002090600b02016000909190919091506000820151816000019080519060200190612b0392919061310e565b5060208201518160010160006101000a81548173ffffffffffffffffffffffffffffffffffffffff021916908373ffffffffffffffffffffffffffffffffffffffff16021790555060408201518160020160006101000a81548173ffffffffffffffffffffffffffffffffffffffff021916908373ffffffffffffffffffffffffffffffffffffffff160217905550606082015181600301556080820151816004015560a0820151816005019080519060200190612bc2929190612ef0565b5060c0820151816006015560e082015181600701556101008201518160080160006101000a81548160ff021916908315150217905550610120820151816009019080519060200190612c15929190612ef0565b5061014082015181600a019080519060200190612c33929190612ef0565b50505060086000815480929190612c49906141e8565b919050555050505050565b60078181548110612c6457600080fd5b90600052602060002090600b02016000915090508060010160009054906101000a900473ffffffffffffffffffffffffffffffffffffffff16908060020160009054906101000a900473ffffffffffffffffffffffffffffffffffffffff1690806003015490806004015490806005018054612cdf90614185565b80601f0160208091040260200160405190810160405280929190818152602001828054612d0b90614185565b8015612d585780601f10612d2d57610100808354040283529160200191612d58565b820191906000526020600020905b815481529060010190602001808311612d3b57829003601f168201915b5050505050908060060154908060070154908060080160009054906101000a900460ff1690806009018054612d8c90614185565b80601f0160208091040260200160405190810160405280929190818152602001828054612db890614185565b8015612e055780601f10612dda57610100808354040283529160200191612e05565b820191906000526020600020905b815481529060010190602001808311612de857829003601f168201915b50505050509080600a018054612e1a90614185565b80601f0160208091040260200160405190810160405280929190818152602001828054612e4690614185565b8015612e935780601f10612e6857610100808354040283529160200191612e93565b820191906000526020600020905b815481529060010190602001808311612e7657829003601f168201915b505050505090508a565b6040518060e00160405280600073ffffffffffffffffffffffffffffffffffffffff1681526020016060815260200160608152602001600081526020016060815260200160608152602001606081525090565b828054612efc90614185565b90600052602060002090601f016020900481019282612f1e5760008555612f65565b82601f10612f3757805160ff1916838001178555612f65565b82800160010185558215612f65579182015b82811115612f64578251825591602001919060010190612f49565b5b509050612f729190613198565b5090565b828054612f8290614185565b90600052602060002090601f016020900481019282612fa45760008555612ff2565b82601f10612fb55780548555612ff2565b82800160010185558215612ff257600052602060002091601f016020900482015b82811115612ff1578254825591600101919060010190612fd6565b5b509050612fff9190613198565b5090565b604051806101400160405280600073ffffffffffffffffffffffffffffffffffffffff168152602001600073ffffffffffffffffffffffffffffffffffffffff1681526020016000815260200160008152602001606081526020016000815260200160008152602001600081526020016000151581526020016000151581525090565b60405180610160016040528060608152602001600073ffffffffffffffffffffffffffffffffffffffff168152602001600073ffffffffffffffffffffffffffffffffffffffff168152602001600081526020016000815260200160608152602001600081526020016000815260200160001515815260200160608152602001606081525090565b828054828255906000526020600020908101928215613187579160200282015b828111156131865782518260006101000a81548173ffffffffffffffffffffffffffffffffffffffff021916908373ffffffffffffffffffffffffffffffffffffffff1602179055509160200191906001019061312e565b5b5090506131949190613198565b5090565b5b808211156131b1576000816000905550600101613199565b5090565b60006131c86131c384613f7b565b613f56565b9050828152602081018484840111156131e4576131e3614321565b5b6131ef848285614143565b509392505050565b600081359050613206816143e5565b92915050565b600082601f8301126132215761322061431c565b5b81356132318482602086016131b5565b91505092915050565b600081359050613249816143fc565b92915050565b6000602082840312156132655761326461432b565b5b6000613273848285016131f7565b91505092915050565b600080604083850312156132935761329261432b565b5b60006132a1858286016131f7565b92505060206132b28582860161323a565b9150509250929050565b6000806000606084860312156132d5576132d461432b565b5b600084013567ffffffffffffffff8111156132f3576132f2614326565b5b6132ff8682870161320c565b935050602084013567ffffffffffffffff8111156133205761331f614326565b5b61332c8682870161320c565b925050604084013567ffffffffffffffff81111561334d5761334c614326565b5b6133598682870161320c565b9150509250925092565b6000602082840312156133795761337861432b565b5b60006133878482850161323a565b91505092915050565b600080600080608085870312156133aa576133a961432b565b5b60006133b88782880161323a565b945050602085013567ffffffffffffffff8111156133d9576133d8614326565b5b6133e58782880161320c565b935050604085013567ffffffffffffffff81111561340657613405614326565b5b6134128782880161320c565b925050606085013567ffffffffffffffff81111561343357613432614326565b5b61343f8782880161320c565b91505092959194509250565b600080600080600060a086880312156134675761346661432b565b5b60006134758882890161323a565b955050602086013567ffffffffffffffff81111561349657613495614326565b5b6134a28882890161320c565b945050604086013567ffffffffffffffff8111156134c3576134c2614326565b5b6134cf8882890161320c565b935050606086013567ffffffffffffffff8111156134f0576134ef614326565b5b6134fc8882890161320c565b925050608086013567ffffffffffffffff81111561351d5761351c614326565b5b6135298882890161320c565b9150509295509295909350565b60008060006060848603121561354f5761354e61432b565b5b600061355d8682870161323a565b935050602061356e8682870161323a565b925050604084013567ffffffffffffffff81111561358f5761358e614326565b5b61359b8682870161320c565b9150509250925092565b60006135b18383613603565b60208301905092915050565b60006135c98383613962565b905092915050565b60006135dd8383613a66565b905092915050565b6135ee816140fb565b82525050565b6135fd816140fb565b82525050565b61360c816140e9565b82525050565b61361b816140e9565b82525050565b600061362c82613ff1565b6136368185614044565b935061364183613fac565b8060005b8381101561367257815161365988826135a5565b97506136648361401d565b925050600181019050613645565b5085935050505092915050565b600061368a82613ff1565b6136948185614055565b935061369f83613fac565b8060005b838110156136d05781516136b788826135a5565b97506136c28361401d565b9250506001810190506136a3565b5085935050505092915050565b60006136e882613ffc565b6136f28185614066565b93508360208202850161370485613fbc565b8060005b85811015613740578484038952815161372185826135bd565b945061372c8361402a565b925060208a01995050600181019050613708565b50829750879550505050505092915050565b600061375d82614007565b6137678185614077565b93508360208202850161377985613fcc565b8060005b858110156137b5578484038952815161379685826135d1565b94506137a183614037565b925060208a0199505060018101905061377d565b50829750879550505050505092915050565b6137d08161410d565b82525050565b6137df8161410d565b82525050565b60006137f082614012565b6137fa8185614088565b935061380a818560208601614152565b61381381614330565b840191505092915050565b600061382982614012565b6138338185614099565b9350613843818560208601614152565b61384c81614330565b840191505092915050565b6000815461386481614185565b61386e81866140aa565b94506001821660008114613889576001811461389a576138cd565b60ff198316865281860193506138cd565b6138a385613fdc565b60005b838110156138c5578154818901526001820191506020810190506138a6565b838801955050505b50505092915050565b60006138e3600a83614099565b91506138ee82614341565b602082019050919050565b60006139066004836140aa565b91506139118261436a565b600482019050919050565b60006139296004836140aa565b915061393482614393565b600482019050919050565b600061394c600a83614099565b9150613957826143bc565b602082019050919050565b60006101608301600083015184820360008601526139808282613621565b91505060208301516139956020860182613603565b5060408301516139a86040860182613603565b5060608301516139bb6060860182613bf8565b5060808301516139ce6080860182613bf8565b5060a083015184820360a08601526139e682826137e5565b91505060c08301516139fb60c0860182613bf8565b5060e0830151613a0e60e0860182613bf8565b50610100830151613a236101008601826137c7565b50610120830151848203610120860152613a3d82826137e5565b915050610140830151848203610140860152613a5982826137e5565b9150508091505092915050565b600061014083016000830151613a7f60008601826135e5565b506020830151613a9260208601826135e5565b506040830151613aa56040860182613bf8565b506060830151613ab86060860182613bf8565b5060808301518482036080860152613ad082826137e5565b91505060a0830151613ae560a0860182613bf8565b5060c0830151613af860c0860182613bf8565b5060e0830151613b0b60e0860182613bf8565b50610100830151613b206101008601826137c7565b50610120830151613b356101208601826137c7565b508091505092915050565b600060e083016000830151613b586000860182613603565b5060208301518482036020860152613b7082826137e5565b91505060408301518482036040860152613b8a82826137e5565b9150506060830151613b9f6060860182613bf8565b5060808301518482036080860152613bb782826137e5565b91505060a083015184820360a0860152613bd182826137e5565b91505060c083015184820360c0860152613beb82826137e5565b9150508091505092915050565b613c0181614139565b82525050565b613c1081614139565b82525050565b6000613c228284613857565b915081905092915050565b6000613c38826138f9565b9150819050919050565b6000613c4d8261391c565b9150819050919050565b6000602082019050613c6c6000830184613612565b92915050565b600061014082019050613c88600083018d6135f4565b613c95602083018c6135f4565b613ca2604083018b613c07565b613caf606083018a613c07565b8181036080830152613cc1818961381e565b9050613cd060a0830188613c07565b613cdd60c0830187613c07565b613cea60e0830186613c07565b613cf86101008301856137d6565b613d066101208301846137d6565b9b9a5050505050505050505050565b600061014082019050613d2b600083018d613612565b613d38602083018c613612565b613d45604083018b613c07565b613d52606083018a613c07565b8181036080830152613d64818961381e565b9050613d7360a0830188613c07565b613d8060c0830187613c07565b613d8d60e08301866137d6565b818103610100830152613da0818561381e565b9050818103610120830152613db5818461381e565b90509b9a5050505050505050505050565b600060e082019050613ddb600083018a613612565b8181036020830152613ded818961381e565b90508181036040830152613e01818861381e565b9050613e106060830187613c07565b8181036080830152613e22818661381e565b905081810360a0830152613e36818561381e565b905081810360c0830152613e4a818461381e565b905098975050505050505050565b60006020820190508181036000830152613e72818461367f565b905092915050565b60006020820190508181036000830152613e9481846136dd565b905092915050565b60006020820190508181036000830152613eb68184613752565b905092915050565b6000602082019050613ed360008301846137d6565b92915050565b60006020820190508181036000830152613ef2816138d6565b9050919050565b60006020820190508181036000830152613f128161393f565b9050919050565b60006020820190508181036000830152613f338184613b40565b905092915050565b6000602082019050613f506000830184613c07565b92915050565b6000613f60613f71565b9050613f6c82826141b7565b919050565b6000604051905090565b600067ffffffffffffffff821115613f9657613f956142ed565b5b613f9f82614330565b9050602081019050919050565b6000819050602082019050919050565b6000819050602082019050919050565b6000819050602082019050919050565b60008190508160005260206000209050919050565b600081519050919050565b600081519050919050565b600081519050919050565b600081519050919050565b6000602082019050919050565b6000602082019050919050565b6000602082019050919050565b600082825260208201905092915050565b600082825260208201905092915050565b600082825260208201905092915050565b600082825260208201905092915050565b600082825260208201905092915050565b600082825260208201905092915050565b600081905092915050565b60006140c082614139565b91506140cb83614139565b9250828210156140de576140dd614231565b5b828203905092915050565b60006140f482614119565b9050919050565b600061410682614119565b9050919050565b60008115159050919050565b600073ffffffffffffffffffffffffffffffffffffffff82169050919050565b6000819050919050565b82818337600083830152505050565b60005b83811015614170578082015181840152602081019050614155565b8381111561417f576000848401525b50505050565b6000600282049050600182168061419d57607f821691505b602082108114156141b1576141b061428f565b5b50919050565b6141c082614330565b810181811067ffffffffffffffff821117156141df576141de6142ed565b5b80604052505050565b60006141f382614139565b91507fffffffffffffffffffffffffffffffffffffffffffffffffffffffffffffffff82141561422657614225614231565b5b600182019050919050565b7f4e487b7100000000000000000000000000000000000000000000000000000000600052601160045260246000fd5b7f4e487b7100000000000000000000000000000000000000000000000000000000600052602160045260246000fd5b7f4e487b7100000000000000000000000000000000000000000000000000000000600052602260045260246000fd5b7f4e487b7100000000000000000000000000000000000000000000000000000000600052603260045260246000fd5b7f4e487b7100000000000000000000000000000000000000000000000000000000600052604160045260246000fd5b600080fd5b600080fd5b600080fd5b600080fd5b6000601f19601f8301169050919050565b7f4e4f542041205553455200000000000000000000000000000000000000000000600082015250565b7f5573657200000000000000000000000000000000000000000000000000000000600082015250565b7f486f737400000000000000000000000000000000000000000000000000000000600082015250565b7f4e4f54204120484f535400000000000000000000000000000000000000000000600082015250565b6143ee816140e9565b81146143f957600080fd5b50565b61440581614139565b811461441057600080fd5b5056fea2646970667358221220021bb1d210447c4419bec14e6edaa9f33326e976be7d0e0d7d1780a41b5105f864736f6c63430008070033",
  "devdoc": {
    "kind": "dev",
    "methods": {
      "constructor": {
        "details": "constructor used to assign values that will not change"
      },
      "createCampaign(string,string,string)": {
        "details": "This function `createCampaign` allows only the User to call it hence the `OnlyUser` modifier after which any avaliable volunteer would be assigned to the campaign"
      },
      "createHost(uint256,string,string,string,string)": {
        "details": "This function `createHost` any body can call this functions and the senders profile would be set to that of a `Host`"
      },
      "createSchedule(uint256,uint256,string)": {
        "details": "This function `createSchedule` allows only the Host to call it hence the `OnlyHost` modifier after which a Host can create a meeting with some parameters like time and fee needed"
      },
      "createUser(uint256,string,string,string)": {
        "details": "This function `createUser` any body can call this functions and the senders profile would be set to that of a `User`"
      },
      "endCampaign(uint256)": {
        "details": "This function `endCampaign` allows only the User end the campaign"
      },
      "endMeeting()": {
        "details": "This function `endMeeting` is called by chainlink automation cron job and ends every meeting by setting the completed status to true"
      },
      "getHelp(uint256)": {
        "details": "This function `getHelo` allows only the User to call it hence the `OnlyUser` modifier after which the Campaign ID is specified and the user would be assigned to the Campaign"
      },
      "joinCampaign(uint256)": {
        "details": "This function `joinCampaign` allows only the User to call it hence the `onlyHost` modifier after which the Campaign ID is specified and the user would be assigned to the Campaign"
      },
      "joinMeeting(address,uint256)": {
        "details": "This function `joinMeeting` allows only the User to call it hence the `OnlyUser` modifier after which the meeting ID is specified and the user would be assigned to the meeting"
      }
    },
    "version": 1
  },
  "userdoc": {
    "kind": "user",
    "methods": {
      "isUser(address)": {
        "notice": "Getter Functions "
      }
    },
    "version": 1
  },
  "storageLayout": {
    "storage": [
      {
        "astId": 3,
        "contract": "contracts/XTELPT.sol:XTELPT",
        "label": "owner",
        "offset": 0,
        "slot": "0",
        "type": "t_address"
      },
      {
        "astId": 8,
        "contract": "contracts/XTELPT.sol:XTELPT",
        "label": "counter",
        "offset": 0,
        "slot": "1",
        "type": "t_uint256"
      },
      {
        "astId": 12,
        "contract": "contracts/XTELPT.sol:XTELPT",
        "label": "lastTimeStamp",
        "offset": 0,
        "slot": "2",
        "type": "t_uint256"
      },
      {
        "astId": 15,
        "contract": "contracts/XTELPT.sol:XTELPT",
        "label": "userType",
        "offset": 0,
        "slot": "3",
        "type": "t_string_storage"
      },
      {
        "astId": 18,
        "contract": "contracts/XTELPT.sol:XTELPT",
        "label": "hostType",
        "offset": 0,
        "slot": "4",
        "type": "t_string_storage"
      },
      {
        "astId": 21,
        "contract": "contracts/XTELPT.sol:XTELPT",
        "label": "volunType",
        "offset": 0,
        "slot": "5",
        "type": "t_string_storage"
      },
      {
        "astId": 27,
        "contract": "contracts/XTELPT.sol:XTELPT",
        "label": "Meeting",
        "offset": 0,
        "slot": "6",
        "type": "t_mapping(t_address,t_array(t_struct(meeting)92_storage)dyn_storage)"
      },
      {
        "astId": 31,
        "contract": "contracts/XTELPT.sol:XTELPT",
        "label": "Campaign",
        "offset": 0,
        "slot": "7",
        "type": "t_array(t_struct(campaign)116_storage)dyn_storage"
      },
      {
        "astId": 33,
        "contract": "contracts/XTELPT.sol:XTELPT",
        "label": "campaignIndex",
        "offset": 0,
        "slot": "8",
        "type": "t_uint256"
      },
      {
        "astId": 35,
        "contract": "contracts/XTELPT.sol:XTELPT",
        "label": "meetingIndex",
        "offset": 0,
        "slot": "9",
        "type": "t_uint256"
      },
      {
        "astId": 40,
        "contract": "contracts/XTELPT.sol:XTELPT",
        "label": "UserProfile",
        "offset": 0,
        "slot": "10",
        "type": "t_mapping(t_address,t_struct(profile)71_storage)"
      },
      {
        "astId": 45,
        "contract": "contracts/XTELPT.sol:XTELPT",
        "label": "s_xtelpState",
        "offset": 0,
        "slot": "11",
        "type": "t_mapping(t_address,t_enum(XTELPState)6)"
      },
      {
        "astId": 50,
        "contract": "contracts/XTELPT.sol:XTELPT",
        "label": "volunState",
        "offset": 0,
        "slot": "12",
        "type": "t_mapping(t_address,t_enum(XTELPState)6)"
      },
      {
        "astId": 53,
        "contract": "contracts/XTELPT.sol:XTELPT",
        "label": "AllAccount",
        "offset": 0,
        "slot": "13",
        "type": "t_array(t_address)dyn_storage"
      },
      {
        "astId": 56,
        "contract": "contracts/XTELPT.sol:XTELPT",
        "label": "recentCampaignCreator",
        "offset": 0,
        "slot": "14",
        "type": "t_array(t_address)dyn_storage"
      }
    ],
    "types": {
      "t_address": {
        "encoding": "inplace",
        "label": "address",
        "numberOfBytes": "20"
      },
      "t_address_payable": {
        "encoding": "inplace",
        "label": "address payable",
        "numberOfBytes": "20"
      },
      "t_array(t_address)dyn_storage": {
        "base": "t_address",
        "encoding": "dynamic_array",
        "label": "address[]",
        "numberOfBytes": "32"
      },
      "t_array(t_struct(campaign)116_storage)dyn_storage": {
        "base": "t_struct(campaign)116_storage",
        "encoding": "dynamic_array",
        "label": "struct XTELPT.campaign[]",
        "numberOfBytes": "32"
      },
      "t_array(t_struct(meeting)92_storage)dyn_storage": {
        "base": "t_struct(meeting)92_storage",
        "encoding": "dynamic_array",
        "label": "struct XTELPT.meeting[]",
        "numberOfBytes": "32"
      },
      "t_bool": {
        "encoding": "inplace",
        "label": "bool",
        "numberOfBytes": "1"
      },
      "t_enum(XTELPState)6": {
        "encoding": "inplace",
        "label": "enum XTELPT.XTELPState",
        "numberOfBytes": "1"
      },
      "t_mapping(t_address,t_array(t_struct(meeting)92_storage)dyn_storage)": {
        "encoding": "mapping",
        "key": "t_address",
        "label": "mapping(address => struct XTELPT.meeting[])",
        "numberOfBytes": "32",
        "value": "t_array(t_struct(meeting)92_storage)dyn_storage"
      },
      "t_mapping(t_address,t_enum(XTELPState)6)": {
        "encoding": "mapping",
        "key": "t_address",
        "label": "mapping(address => enum XTELPT.XTELPState)",
        "numberOfBytes": "32",
        "value": "t_enum(XTELPState)6"
      },
      "t_mapping(t_address,t_struct(profile)71_storage)": {
        "encoding": "mapping",
        "key": "t_address",
        "label": "mapping(address => struct XTELPT.profile)",
        "numberOfBytes": "32",
        "value": "t_struct(profile)71_storage"
      },
      "t_string_storage": {
        "encoding": "bytes",
        "label": "string",
        "numberOfBytes": "32"
      },
      "t_struct(campaign)116_storage": {
        "encoding": "inplace",
        "label": "struct XTELPT.campaign",
        "members": [
          {
            "astId": 95,
            "contract": "contracts/XTELPT.sol:XTELPT",
            "label": "volunteer",
            "offset": 0,
            "slot": "0",
            "type": "t_array(t_address)dyn_storage"
          },
          {
            "astId": 97,
            "contract": "contracts/XTELPT.sol:XTELPT",
            "label": "user",
            "offset": 0,
            "slot": "1",
            "type": "t_address"
          },
          {
            "astId": 99,
            "contract": "contracts/XTELPT.sol:XTELPT",
            "label": "vol",
            "offset": 0,
            "slot": "2",
            "type": "t_address"
          },
          {
            "astId": 101,
            "contract": "contracts/XTELPT.sol:XTELPT",
            "label": "start_time",
            "offset": 0,
            "slot": "3",
            "type": "t_uint256"
          },
          {
            "astId": 103,
            "contract": "contracts/XTELPT.sol:XTELPT",
            "label": "end_time",
            "offset": 0,
            "slot": "4",
            "type": "t_uint256"
          },
          {
            "astId": 105,
            "contract": "contracts/XTELPT.sol:XTELPT",
            "label": "image",
            "offset": 0,
            "slot": "5",
            "type": "t_string_storage"
          },
          {
            "astId": 107,
            "contract": "contracts/XTELPT.sol:XTELPT",
            "label": "fee",
            "offset": 0,
            "slot": "6",
            "type": "t_uint256"
          },
          {
            "astId": 109,
            "contract": "contracts/XTELPT.sol:XTELPT",
            "label": "index",
            "offset": 0,
            "slot": "7",
            "type": "t_uint256"
          },
          {
            "astId": 111,
            "contract": "contracts/XTELPT.sol:XTELPT",
            "label": "completed",
            "offset": 0,
            "slot": "8",
            "type": "t_bool"
          },
          {
            "astId": 113,
            "contract": "contracts/XTELPT.sol:XTELPT",
            "label": "name",
            "offset": 0,
            "slot": "9",
            "type": "t_string_storage"
          },
          {
            "astId": 115,
            "contract": "contracts/XTELPT.sol:XTELPT",
            "label": "desc",
            "offset": 0,
            "slot": "10",
            "type": "t_string_storage"
          }
        ],
        "numberOfBytes": "352"
      },
      "t_struct(meeting)92_storage": {
        "encoding": "inplace",
        "label": "struct XTELPT.meeting",
        "members": [
          {
            "astId": 73,
            "contract": "contracts/XTELPT.sol:XTELPT",
            "label": "host",
            "offset": 0,
            "slot": "0",
            "type": "t_address_payable"
          },
          {
            "astId": 75,
            "contract": "contracts/XTELPT.sol:XTELPT",
            "label": "user",
            "offset": 0,
            "slot": "1",
            "type": "t_address_payable"
          },
          {
            "astId": 77,
            "contract": "contracts/XTELPT.sol:XTELPT",
            "label": "start",
            "offset": 0,
            "slot": "2",
            "type": "t_uint256"
          },
          {
            "astId": 79,
            "contract": "contracts/XTELPT.sol:XTELPT",
            "label": "end",
            "offset": 0,
            "slot": "3",
            "type": "t_uint256"
          },
          {
            "astId": 81,
            "contract": "contracts/XTELPT.sol:XTELPT",
            "label": "desc",
            "offset": 0,
            "slot": "4",
            "type": "t_string_storage"
          },
          {
            "astId": 83,
            "contract": "contracts/XTELPT.sol:XTELPT",
            "label": "time",
            "offset": 0,
            "slot": "5",
            "type": "t_uint256"
          },
          {
            "astId": 85,
            "contract": "contracts/XTELPT.sol:XTELPT",
            "label": "fee",
            "offset": 0,
            "slot": "6",
            "type": "t_uint256"
          },
          {
            "astId": 87,
            "contract": "contracts/XTELPT.sol:XTELPT",
            "label": "index",
            "offset": 0,
            "slot": "7",
            "type": "t_uint256"
          },
          {
            "astId": 89,
            "contract": "contracts/XTELPT.sol:XTELPT",
            "label": "completed",
            "offset": 0,
            "slot": "8",
            "type": "t_bool"
          },
          {
            "astId": 91,
            "contract": "contracts/XTELPT.sol:XTELPT",
            "label": "booked",
            "offset": 1,
            "slot": "8",
            "type": "t_bool"
          }
        ],
        "numberOfBytes": "288"
      },
      "t_struct(profile)71_storage": {
        "encoding": "inplace",
        "label": "struct XTELPT.profile",
        "members": [
          {
            "astId": 58,
            "contract": "contracts/XTELPT.sol:XTELPT",
            "label": "addr",
            "offset": 0,
            "slot": "0",
            "type": "t_address"
          },
          {
            "astId": 60,
            "contract": "contracts/XTELPT.sol:XTELPT",
            "label": "name",
            "offset": 0,
            "slot": "1",
            "type": "t_string_storage"
          },
          {
            "astId": 62,
            "contract": "contracts/XTELPT.sol:XTELPT",
            "label": "role",
            "offset": 0,
            "slot": "2",
            "type": "t_string_storage"
          },
          {
            "astId": 64,
            "contract": "contracts/XTELPT.sol:XTELPT",
            "label": "rating",
            "offset": 0,
            "slot": "3",
            "type": "t_uint256"
          },
          {
            "astId": 66,
            "contract": "contracts/XTELPT.sol:XTELPT",
            "label": "bio",
            "offset": 0,
            "slot": "4",
            "type": "t_string_storage"
          },
          {
            "astId": 68,
            "contract": "contracts/XTELPT.sol:XTELPT",
            "label": "profilePic",
            "offset": 0,
            "slot": "5",
            "type": "t_string_storage"
          },
          {
            "astId": 70,
            "contract": "contracts/XTELPT.sol:XTELPT",
            "label": "hostTitle",
            "offset": 0,
            "slot": "6",
            "type": "t_string_storage"
          }
        ],
        "numberOfBytes": "224"
      },
      "t_uint256": {
        "encoding": "inplace",
        "label": "uint256",
        "numberOfBytes": "32"
      }
    }
  }
}